{
  "contractName": "BlokPool",
  "abi": [
    {
      "inputs": [],
      "stateMutability": "nonpayable",
      "type": "constructor"
    },
    {
      "inputs": [],
      "name": "getName",
      "outputs": [
        {
          "internalType": "string",
          "name": "",
          "type": "string"
        }
      ],
      "stateMutability": "view",
      "type": "function",
      "constant": true
    },
    {
      "inputs": [],
      "name": "getRewardsFund",
      "outputs": [
        {
          "internalType": "uint256",
          "name": "",
          "type": "uint256"
        }
      ],
      "stateMutability": "view",
      "type": "function",
      "constant": true
    },
    {
      "inputs": [],
      "name": "getTotalStakingDeposits",
      "outputs": [
        {
          "internalType": "uint256",
          "name": "",
          "type": "uint256"
        }
      ],
      "stateMutability": "view",
      "type": "function",
      "constant": true
    },
    {
      "inputs": [],
      "name": "getDepositFee",
      "outputs": [
        {
          "internalType": "uint256",
          "name": "",
          "type": "uint256"
        }
      ],
      "stateMutability": "view",
      "type": "function",
      "constant": true
    },
    {
      "inputs": [],
      "name": "getHarvestCooldownBlocks",
      "outputs": [
        {
          "internalType": "uint256",
          "name": "",
          "type": "uint256"
        }
      ],
      "stateMutability": "view",
      "type": "function",
      "constant": true
    },
    {
      "inputs": [],
      "name": "getStakingBlockRange",
      "outputs": [
        {
          "internalType": "uint256",
          "name": "",
          "type": "uint256"
        }
      ],
      "stateMutability": "view",
      "type": "function",
      "constant": true
    },
    {
      "inputs": [
        {
          "internalType": "uint256",
          "name": "amount",
          "type": "uint256"
        }
      ],
      "name": "deposit",
      "outputs": [],
      "stateMutability": "nonpayable",
      "type": "function"
    },
    {
      "inputs": [],
      "name": "withdraw",
      "outputs": [],
      "stateMutability": "nonpayable",
      "type": "function"
    },
    {
      "inputs": [],
      "name": "emergencyWithdraw",
      "outputs": [],
      "stateMutability": "nonpayable",
      "type": "function"
    },
    {
      "inputs": [],
      "name": "computeUserReward",
      "outputs": [
        {
          "internalType": "uint256",
          "name": "",
          "type": "uint256"
        }
      ],
      "stateMutability": "view",
      "type": "function",
      "constant": true
    },
    {
      "inputs": [],
      "name": "harvest",
      "outputs": [],
      "stateMutability": "nonpayable",
      "type": "function"
    },
    {
      "inputs": [],
      "name": "getStakingDeposit",
      "outputs": [
        {
          "internalType": "uint256",
          "name": "",
          "type": "uint256"
        }
      ],
      "stateMutability": "view",
      "type": "function",
      "constant": true
    },
    {
      "inputs": [],
      "name": "getStakingBlock",
      "outputs": [
        {
          "internalType": "uint256",
          "name": "",
          "type": "uint256"
        }
      ],
      "stateMutability": "view",
      "type": "function",
      "constant": true
    },
    {
      "inputs": [],
      "name": "computeBlocksStaking",
      "outputs": [
        {
          "internalType": "uint256",
          "name": "",
          "type": "uint256"
        }
      ],
      "stateMutability": "view",
      "type": "function",
      "constant": true
    }
  ],
  "bytecode": "0x60c06040526009608081905268109313d2c8141bdbdb60ba1b60a09081526200002c916000919062000272565b50610e10600155600a6002556021600355617080600455620d2f00600555670de0b6b3a76400006006556104b0600755600b80546001600160a01b03199081167398d23ada1da268bc10e2e0d1585c47971c4b89dd17909155600c8054821673845e76a8691423fbc4ecb8dd77556cb61c09ee25179055600d80548216730d500b1d8e8ef31e21c99d1db9a6444d3adf1270179055600e8054821673229b1b6c23ff8953d663c4cbb519717e323a0a84179055600f80548216735c6ec38fb0e2609672bdf628b1fd605a523e592317905560108054821673a5e0829caced8ffdd4de3c43696c57f7d7a678ff17905560118054909116734e22399070ad5ad7f7beb7d3a7b543e8ecbf1d851790553480156200014757600080fd5b50600b54601280546001600160a01b03199081166001600160a01b03938416908117909255600c546013805483169185169182179055600d546014805484169186169182179055600e54601580548516918716919091179055600f5460168054851691871691909117905560105460178054851691871691909117905560115460188054909416951694909417909155604080516060810182529283526020830193909352918101919091526200020390601990600362000301565b5060408051808201909152600c546001600160a01b039081168252600d541660208201526200023790601a90600262000301565b5060408051808201909152600d546001600160a01b039081168252600e541660208201526200026b90601b90600262000301565b50620003ad565b828054620002809062000370565b90600052602060002090601f016020900481019282620002a45760008555620002ef565b82601f10620002bf57805160ff1916838001178555620002ef565b82800160010185558215620002ef579182015b82811115620002ef578251825591602001919060010190620002d2565b50620002fd92915062000359565b5090565b828054828255906000526020600020908101928215620002ef579160200282015b82811115620002ef57825182546001600160a01b0319166001600160a01b0390911617825560209092019160019091019062000322565b5b80821115620002fd57600081556001016200035a565b6002810460018216806200038557607f821691505b60208210811415620003a757634e487b7160e01b600052602260045260246000fd5b50919050565b61151d80620003bd6000396000f3fe608060405234801561001057600080fd5b50600436106100ea5760003560e01c8063b6b55f251161008c578063c1f45a9911610066578063c1f45a991461016f578063d9a9cb6f14610177578063db2e21bc1461017f578063f9209fae14610187576100ea565b8063b6b55f251461014c578063b841ac331461015f578063c1b4305614610167576100ea565b806340737cdd116100c857806340737cdd1461012c5780634641257d146101345780634a033c641461013c5780634fbfd1b614610144576100ea565b80630de705b5146100ef57806317d7de7c1461010d5780633ccfd60b14610122575b600080fd5b6100f761018f565b604051610104919061123f565b60405180910390f35b610115610195565b6040516101049190611248565b61012a610227565b005b6100f7610250565b61012a6102d6565b6100f76103e9565b6100f7610423565b61012a61015a3660046111be565b610522565b6100f7610954565b6100f761097f565b6100f76109b0565b6100f76109b6565b61012a6109bc565b6100f7610a9a565b60025490565b6060600080546101a490611480565b80601f01602080910402602001604051908101604052809291908181526020018280546101d090611480565b801561021d5780601f106101f25761010080835404028352916020019161021d565b820191906000526020600020905b81548152906001019060200180831161020057829003601f168201915b5050505050905090565b60006102316103e9565b9050600454811115610245576102456102d6565b61024d6109bc565b50565b6015546040516370a0823160e01b81526000916001600160a01b0316906370a08231906102819030906004016111ee565b60206040518083038186803b15801561029957600080fd5b505afa1580156102ad573d6000803e3d6000fd5b505050506040513d601f19601f820116820180604052508101906102d191906111d6565b905090565b336000908152600a602052604090205461030b5760405162461bcd60e51b81526004016103029061129b565b60405180910390fd5b60006103156103e9565b905060045481116103385760405162461bcd60e51b81526004016103029061135c565b610340610aa0565b600061034a610423565b336000818152600a60205260409081902043600190910155601554905163a9059cbb60e01b81529293506001600160a01b03169163a9059cbb91610392918590600401611226565b602060405180830381600087803b1580156103ac57600080fd5b505af11580156103c0573d6000803e3d6000fd5b505050506040513d601f19601f820116820180604052508101906103e49190611197565b505050565b336000908152600a60205260408120548190156102d157336000908152600a602052604090206001015461041d9043611469565b92915050565b336000908152600a602052604081205461044f5760405162461bcd60e51b81526004016103029061129b565b6000610459610250565b90506000806104666103e9565b9050801561051b576006546005548210156104985760055460065461048b908461144a565b610495919061142a565b90505b600654600954336000908152600a602052604090205410156104e157600954600654336000908152600a60205260409020546104d4919061144a565b6104de919061142a565b90505b6006546000906104f1838561144a565b6104fb919061142a565b60065490915061050b878361144a565b610515919061142a565b94505050505b5091505090565b60648110156105435760405162461bcd60e51b815260040161030290611317565b6012546040516323b872dd60e01b81526001600160a01b03909116906323b872dd9061057790339030908690600401611202565b602060405180830381600087803b15801561059157600080fd5b505af11580156105a5573d6000803e3d6000fd5b505050506040513d601f19601f820116820180604052508101906105c99190611197565b5060006064600254836105dc919061144a565b6105e6919061142a565b905060006105f48284611469565b336000908152600a6020526040812080549293508392909190610618908490611412565b9091555050336000908152600a602052604081204360019091015560098054839290610645908490611412565b92505081905550600060198054806020026020016040519081016040528092919081815260200182805480156106a457602002820191906000526020600020905b81546001600160a01b03168152600190910190602001808311610686575b5050601254600f5460405163095ea7b360e01b81529596506001600160a01b039182169563095ea7b395506106e29450911691508790600401611226565b602060405180830381600087803b1580156106fc57600080fd5b505af1158015610710573d6000803e3d6000fd5b505050506040513d601f19601f820116820180604052508101906107349190611197565b506016546001546001600160a01b03909116906338ed1739908590600090859030906107609042611412565b6040518663ffffffff1660e01b81526004016107809594939291906113a2565b600060405180830381600087803b15801561079a57600080fd5b505af11580156107ae573d6000803e3d6000fd5b505050506040513d6000823e601f3d908101601f191682016040526107d691908101906110dd565b506013546040516370a0823160e01b81526000916001600160a01b0316906370a08231906108089030906004016111ee565b60206040518083038186803b15801561082057600080fd5b505afa158015610834573d6000803e3d6000fd5b505050506040513d601f19601f8201168201806040525081019061085891906111d6565b60135460115460405163095ea7b360e01b81529293506001600160a01b039182169263095ea7b3926108909216908590600401611226565b602060405180830381600087803b1580156108aa57600080fd5b505af11580156108be573d6000803e3d6000fd5b505050506040513d601f19601f820116820180604052508101906108e29190611197565b506018546040516341441d3b60e01b81526001600160a01b03909116906341441d3b9061091390849060040161123f565b600060405180830381600087803b15801561092d57600080fd5b505af1158015610941573d6000803e3d6000fd5b5050505061094d610aa0565b5050505050565b336000908152600a602090815260409182902082518084019093528054835260010154910181905290565b336000908152600a602090815260409182902082518084019093528054808452600190910154929091019190915290565b60045490565b60055490565b336000908152600a6020526040902054806109e95760405162461bcd60e51b8152600401610302906112d2565b336000818152600a602052604080822091909155601254905163a9059cbb60e01b81526001600160a01b039091169163a9059cbb91610a2d91908590600401611226565b602060405180830381600087803b158015610a4757600080fd5b505af1158015610a5b573d6000803e3d6000fd5b505050506040513d601f19601f82011682018060405250810190610a7f9190611197565b508060096000828254610a929190611469565b909155505050565b60095490565b600060085443610ab09190611469565b905060075481111561024d576000601a805480602002602001604051908101604052809291908181526020018280548015610b1457602002820191906000526020600020905b81546001600160a01b03168152600190910190602001808311610af6575b505050505090506000601b805480602002602001604051908101604052809291908181526020018280548015610b7357602002820191906000526020600020905b81546001600160a01b03168152600190910190602001808311610b55575b5050601854604051631058d28160e01b81529495506001600160a01b031693631058d2819350610baa92506000915060040161123f565b600060405180830381600087803b158015610bc457600080fd5b505af1158015610bd8573d6000803e3d6000fd5b50506013546040516370a0823160e01b8152600093506001600160a01b0390911691506370a0823190610c0f9030906004016111ee565b60206040518083038186803b158015610c2757600080fd5b505afa158015610c3b573d6000803e3d6000fd5b505050506040513d601f19601f82011682018060405250810190610c5f91906111d6565b90506000606460035483610c73919061144a565b610c7d919061142a565b90508015610d715760135460115460405163095ea7b360e01b81526001600160a01b039283169263095ea7b392610cbb929116908590600401611226565b602060405180830381600087803b158015610cd557600080fd5b505af1158015610ce9573d6000803e3d6000fd5b505050506040513d601f19601f82011682018060405250810190610d0d9190611197565b506018546040516341441d3b60e01b81526001600160a01b03909116906341441d3b90610d3e90849060040161123f565b600060405180830381600087803b158015610d5857600080fd5b505af1158015610d6c573d6000803e3d6000fd5b505050505b6013546040516370a0823160e01b81526001600160a01b03909116906370a0823190610da19030906004016111ee565b60206040518083038186803b158015610db957600080fd5b505afa158015610dcd573d6000803e3d6000fd5b505050506040513d601f19601f82011682018060405250810190610df191906111d6565b915081156110d257601354600f5460405163095ea7b360e01b81526001600160a01b039283169263095ea7b392610e2f929116908690600401611226565b602060405180830381600087803b158015610e4957600080fd5b505af1158015610e5d573d6000803e3d6000fd5b505050506040513d601f19601f82011682018060405250810190610e819190611197565b506016546001546001600160a01b03909116906338ed173990849060009088903090610ead9042611412565b6040518663ffffffff1660e01b8152600401610ecd9594939291906113a2565b600060405180830381600087803b158015610ee757600080fd5b505af1158015610efb573d6000803e3d6000fd5b505050506040513d6000823e601f3d908101601f19168201604052610f2391908101906110dd565b506014546040516370a0823160e01b81526001600160a01b03909116906370a0823190610f549030906004016111ee565b60206040518083038186803b158015610f6c57600080fd5b505afa158015610f80573d6000803e3d6000fd5b505050506040513d601f19601f82011682018060405250810190610fa491906111d6565b60145460105460405163095ea7b360e01b81529294506001600160a01b039182169263095ea7b392610fdc9216908690600401611226565b602060405180830381600087803b158015610ff657600080fd5b505af115801561100a573d6000803e3d6000fd5b505050506040513d601f19601f8201168201806040525081019061102e9190611197565b506017546001546001600160a01b03909116906338ed17399084906000908790309061105a9042611412565b6040518663ffffffff1660e01b815260040161107a9594939291906113a2565b600060405180830381600087803b15801561109457600080fd5b505af11580156110a8573d6000803e3d6000fd5b505050506040513d6000823e601f3d908101601f191682016040526110d091908101906110dd565b505b505043600855505050565b600060208083850312156110ef578182fd5b825167ffffffffffffffff80821115611106578384fd5b818501915085601f830112611119578384fd5b81518181111561112b5761112b6114d1565b8381026040518582820101818110858211171561114a5761114a6114d1565b604052828152858101935084860182860187018a1015611168578788fd5b8795505b8386101561118a57805185526001959095019493860193860161116c565b5098975050505050505050565b6000602082840312156111a8578081fd5b815180151581146111b7578182fd5b9392505050565b6000602082840312156111cf578081fd5b5035919050565b6000602082840312156111e7578081fd5b5051919050565b6001600160a01b0391909116815260200190565b6001600160a01b039384168152919092166020820152604081019190915260600190565b6001600160a01b03929092168252602082015260400190565b90815260200190565b6000602080835283518082850152825b8181101561127457858101830151858201604001528201611258565b818111156112855783604083870101525b50601f01601f1916929092016040019392505050565b6020808252601e908201527f426c6f6b506f6f6c3a207374616b696e67206465706f73697420697320300000604082015260600190565b60208082526025908201527f426c6f6b506f6f6c3a20776974686472617720616d6f756e742063616e6e6f74604082015264020626520360dc1b606082015260800190565b60208082526025908201527f426c6f6b506f6f6c3a206d696e696d756d206465706f73697420616d6f756e7460408201526403a203130360dc1b606082015260800190565b60208082526026908201527f426c6f6b506f6f6c3a206861727665737420636f6f6c646f776e20696e2070726040820152656f677265737360d01b606082015260800190565b600060a082018783526020878185015260a0604085015281875180845260c0860191508289019350845b818110156113f15784516001600160a01b0316835293830193918301916001016113cc565b50506001600160a01b03969096166060850152505050608001529392505050565b60008219821115611425576114256114bb565b500190565b60008261144557634e487b7160e01b81526012600452602481fd5b500490565b6000816000190483118215151615611464576114646114bb565b500290565b60008282101561147b5761147b6114bb565b500390565b60028104600182168061149457607f821691505b602082108114156114b557634e487b7160e01b600052602260045260246000fd5b50919050565b634e487b7160e01b600052601160045260246000fd5b634e487b7160e01b600052604160045260246000fdfea264697066735822122007a61895b46d1534100675b78973bbfc00f30d83c92ac9d0933c63753192083e64736f6c63430008000033",
  "immutableReferences": {},
  "source": "//SPDX-License-Identifier: GPL-3.0+\n\npragma solidity 0.8.0;\n\ncontract GoToken\n{\n    function approve(address, uint256) external returns (bool) {}\n    function balanceOf(address) external view returns (uint256) {}\n    function transfer(address, uint256) external returns (bool) {}\n    function transferFrom(address, address, uint256) external returns (bool) {}\n}\n\ncontract WingsToken\n{\n    function approve(address, uint256) external returns (bool) {}\n    function balanceOf(address) external view returns (uint256) {}\n}\n\ncontract MaticToken\n{\n    function approve(address, uint256) external returns (bool) {}\n    function balanceOf(address) external view returns (uint256) {}\n}\n\ncontract BlokToken\n{\n    function balanceOf(address) external view returns (uint256) {}\n    function transfer(address, uint256) external returns (bool) {}\n}\n\ncontract JetSwapRouter\n{\n    function swapExactTokensForTokens(\n                 uint,\n                 uint,\n                 address[] calldata,\n                 address,\n                 uint\n             ) external virtual returns (uint[] memory) {}\n}\n\ncontract QuickSwapRouter\n{\n    function swapExactTokensForTokens(\n                 uint,\n                 uint,\n                 address[] calldata,\n                 address,\n                 uint\n             ) external virtual returns (uint[] memory) {}\n}\n\ncontract MasterChef\n{\n    function enterStaking(uint256) public {}\n    function leaveStaking(uint256) public {}\n}\n\ncontract BlokPool \n{\n    struct UserData \n    { \n        uint256 stakingDeposit;\n        uint256 stakingBlock;\n    }\n    \n    string  private _name = \"\\x42\\x4c\\x4f\\x4b\\x20\\x50\\x6f\\x6f\\x6c\";\n    uint256 private _swapWaitingSeconds = 3600;\n    uint256 private _depositFee = 10; //Deposit fee: 10%\n    uint256 private _autoCompoundFee = 33; //Auto-compound fee: 33%\n    uint256 private _harvestCooldownBlocks = 28800;\n    uint256 private _stakingBlockRange = 864000;\n    uint256 private _decimalFixMultiplier = 1000000000000000000;\n    uint256 private _updateCooldownBlocks = 1200;\n\n    uint256 private _lastUpdate;\n    uint256 private _totalStakingDeposits;\n    \n    mapping(address => UserData) private _userData;\n    \n    address private _goTokenAddress = 0x98D23ADA1Da268Bc10E2e0d1585C47971C4B89DD;\n    address private _wingsTokenAddress = 0x845E76A8691423fbc4ECb8Dd77556Cb61c09eE25;\n    address private _maticTokenAddress = 0x0d500B1d8E8eF31E21C99d1Db9A6444d3ADf1270;\n    address private _blokTokenAddress = 0x229b1b6C23ff8953D663C4cBB519717e323a0a84;\n    address private _jetSwapRouterAddress = 0x5C6EC38fb0e2609672BDf628B1fD605A523E5923;\n    address private _quickSwapRouterAddress = 0xa5E0829CaCEd8fFDD4De3c43696c57F7D7A678ff;\n    address private _masterChefAddress = 0x4e22399070aD5aD7f7BEb7d3A7b543e8EcBf1d85;\n    \n    GoToken         private _goToken;\n    WingsToken      private _wingsToken;\n    MaticToken      private _maticToken;\n    BlokToken       private _blokToken;\n    JetSwapRouter   private _jetSwapRouter;\n    QuickSwapRouter private _quickSwapRouter;\n    MasterChef      private _masterChef;\n    \n    address[] private _goWingsPair;\n    address[] private _wingsMaticPair;\n    address[] private _maticBlokPair;\n   \n    constructor()\n    {\n        //Initialize contracts\n        _goToken         = GoToken(_goTokenAddress);\n        _wingsToken      = WingsToken(_wingsTokenAddress);\n        _maticToken      = MaticToken(_maticTokenAddress);\n        _blokToken       = BlokToken(_blokTokenAddress);\n        _jetSwapRouter   = JetSwapRouter(_jetSwapRouterAddress);\n        _quickSwapRouter = QuickSwapRouter(_quickSwapRouterAddress);\n        _masterChef      = MasterChef(_masterChefAddress);\n        \n        //Initialize trading pairs\n        _goWingsPair    = [_goTokenAddress,    _maticTokenAddress, _wingsTokenAddress];\n        _wingsMaticPair = [_wingsTokenAddress, _maticTokenAddress];\n        _maticBlokPair  = [_maticTokenAddress, _blokTokenAddress];\n    }\n    \n    function getName() external view returns (string memory)\n    {\n        return _name;\n    }\n    \n    function getRewardsFund() public view returns (uint256)\n    {\n        return _blokToken.balanceOf(address(this));\n    }\n    \n    function getTotalStakingDeposits() external view returns (uint256)\n    {\n        return _totalStakingDeposits;\n    }\n    \n    function getDepositFee() external view returns (uint256)\n    {\n        return _depositFee;\n    }\n    \n    function getHarvestCooldownBlocks() external view returns (uint256)\n    {\n        return _harvestCooldownBlocks;\n    }\n    \n    function getStakingBlockRange() external view returns (uint256)\n    {\n        return _stakingBlockRange;\n    } \n    \n    function updateRewardsFund() private\n    {\n        uint256 elapsedBlocks = block.number - _lastUpdate;\n    \n        if (elapsedBlocks > _updateCooldownBlocks)\n        {\n            address[] memory wingsMaticPairMemory = _wingsMaticPair;\n            address[] memory maticBlokPairMemory = _maticBlokPair;\n        \n            //Harvest pending Wings\n            _masterChef.leaveStaking(0);\n            \n            uint256 amount = _wingsToken.balanceOf(address(this));\n\n            uint256 fee = amount * _autoCompoundFee / 100;\n                        \n            //Auto-compound\n            if (fee > 0)\n            {\n                _wingsToken.approve(_masterChefAddress, fee);\n                _masterChef.enterStaking(fee);\n            }\n            \n            amount = _wingsToken.balanceOf(address(this));\n            \n            if (amount > 0)\n            {\n                //Swap Wings for Matic\n                _wingsToken.approve(_jetSwapRouterAddress, amount);\n                _jetSwapRouter.swapExactTokensForTokens(amount, 0, wingsMaticPairMemory, address(this), block.timestamp + _swapWaitingSeconds);\n \n                //Swap Matic for Blok\n                amount = _maticToken.balanceOf(address(this));\n                \n                _maticToken.approve(_quickSwapRouterAddress, amount);\n                _quickSwapRouter.swapExactTokensForTokens(amount, 0, maticBlokPairMemory, address(this), block.timestamp + _swapWaitingSeconds);\n            }\n            \n            _lastUpdate = block.number;\n        }\n    }\n    \n    function deposit(uint256 amount) external \n    {\n        require(amount >= 100, \"BlokPool: minimum deposit amount: 100\");\n        \n        _goToken.transferFrom(msg.sender, address(this), amount);\n        \n        uint256 fee = amount * _depositFee / 100;\n        uint256 netAmount = amount - fee;\n        \n        //Update Pool data\n        _userData[msg.sender].stakingDeposit += netAmount;\n        _userData[msg.sender].stakingBlock = block.number;\n        \n        _totalStakingDeposits += netAmount;\n        \n        //Swap fee for Wings\n        address[] memory goWingsPairMemory = _goWingsPair;\n                \n        _goToken.approve(_jetSwapRouterAddress, fee);\n        _jetSwapRouter.swapExactTokensForTokens(fee, 0, goWingsPairMemory, address(this), block.timestamp + _swapWaitingSeconds);\n        \n        //Deposit Wings on MasterChef\n        uint256 wingsAmount = _wingsToken.balanceOf(address(this));\n\n        _wingsToken.approve(_masterChefAddress, wingsAmount);\n        _masterChef.enterStaking(wingsAmount);\n        \n        //Update rewards fund\n        updateRewardsFund();\n    }\n    \n    function withdraw() external\n    {\n        uint256 blocksStaking = computeBlocksStaking();\n\n        if (blocksStaking > _harvestCooldownBlocks)\n            harvest();\n        \n        emergencyWithdraw();\n    }\n    \n    function emergencyWithdraw() public\n    {\n        uint256 stakingDeposit = _userData[msg.sender].stakingDeposit;\n        \n        require(stakingDeposit > 0, \"BlokPool: withdraw amount cannot be 0\");\n        \n        _userData[msg.sender].stakingDeposit = 0;\n \n        _goToken.transfer(msg.sender, stakingDeposit);\n        \n        _totalStakingDeposits -= stakingDeposit;\n    }\n\n    function computeUserReward() public view returns (uint256)\n    {\n        require(_userData[msg.sender].stakingDeposit > 0, \"BlokPool: staking deposit is 0\");\n    \n        uint256 rewardsFund = getRewardsFund();\n        \n        uint256 userReward = 0;\n    \n        uint256 blocksStaking = computeBlocksStaking();\n        \n        if (blocksStaking > 0)\n\t    {\n\t        uint256 userBlockRatio = _decimalFixMultiplier;\n\t    \n\t        if (blocksStaking < _stakingBlockRange)\n\t            userBlockRatio = blocksStaking * _decimalFixMultiplier / _stakingBlockRange; \n\t\t    \n\t\t    uint256 userDepositRatio = _decimalFixMultiplier;\n\t\t    \n\t\t    if (_userData[msg.sender].stakingDeposit < _totalStakingDeposits)\n\t\t        userDepositRatio = _userData[msg.sender].stakingDeposit * _decimalFixMultiplier / _totalStakingDeposits;\n\t\t    \n\t\t    uint256 totalRatio = userBlockRatio * userDepositRatio / _decimalFixMultiplier;\n\t\t    \n\t\t    userReward = totalRatio * rewardsFund / _decimalFixMultiplier;\n\t\t}\n\t\t\n\t\treturn userReward;\n    }\n\n    function harvest() public \n    {\n        require(_userData[msg.sender].stakingDeposit > 0, \"BlokPool: staking deposit is 0\");\n\n        uint256 blocksStaking = computeBlocksStaking();\n\n        require(blocksStaking > _harvestCooldownBlocks, \"BlokPool: harvest cooldown in progress\");\n    \n        updateRewardsFund();\n        \n        uint256 userReward = computeUserReward();\n        \n        _userData[msg.sender].stakingBlock = block.number;\n\n        _blokToken.transfer(msg.sender, userReward);\n    }\n    \n    function getStakingDeposit() external view returns (uint256)\n    {\n        UserData memory userData = _userData[msg.sender];\n    \n        return (userData.stakingDeposit);\n    }\n    \n    function getStakingBlock() external view returns (uint256)\n    {\n        UserData memory userData = _userData[msg.sender];\n    \n        return (userData.stakingBlock);\n    }\n    \n    function computeBlocksStaking() public view returns (uint256)\n    {\n        uint256 blocksStaking = 0;\n        \n        if (_userData[msg.sender].stakingDeposit > 0)\n            blocksStaking = block.number - _userData[msg.sender].stakingBlock;\n        \n        return blocksStaking;\n    }\n}\n\n",
  "sourcePath": "/home/kenshiro/BlokPool/contracts/BlokPool.sol",
  "compiler": {
    "name": "solc",
    "version": "0.8.0+commit.c7dfd78e.Emscripten.clang"
  },
  "schemaVersion": "3.4.0",
  "updatedAt": "2021-10-15T18:45:21.601Z",
  "networkType": "ethereum",
  "devdoc": {
    "kind": "dev",
    "methods": {},
    "version": 1
  },
  "userdoc": {
    "kind": "user",
    "methods": {},
    "version": 1
  }
}