{
  "contractName": "DaiPool",
  "abi": [
    {
      "inputs": [],
      "stateMutability": "nonpayable",
      "type": "constructor"
    },
    {
      "inputs": [],
      "name": "getName",
      "outputs": [
        {
          "internalType": "string",
          "name": "",
          "type": "string"
        }
      ],
      "stateMutability": "view",
      "type": "function",
      "constant": true
    },
    {
      "inputs": [],
      "name": "getRewardsFund",
      "outputs": [
        {
          "internalType": "uint256",
          "name": "",
          "type": "uint256"
        }
      ],
      "stateMutability": "view",
      "type": "function",
      "constant": true
    },
    {
      "inputs": [],
      "name": "getTotalStakingDeposits",
      "outputs": [
        {
          "internalType": "uint256",
          "name": "",
          "type": "uint256"
        }
      ],
      "stateMutability": "view",
      "type": "function",
      "constant": true
    },
    {
      "inputs": [],
      "name": "getDepositFee",
      "outputs": [
        {
          "internalType": "uint256",
          "name": "",
          "type": "uint256"
        }
      ],
      "stateMutability": "view",
      "type": "function",
      "constant": true
    },
    {
      "inputs": [],
      "name": "getHarvestCooldownBlocks",
      "outputs": [
        {
          "internalType": "uint256",
          "name": "",
          "type": "uint256"
        }
      ],
      "stateMutability": "view",
      "type": "function",
      "constant": true
    },
    {
      "inputs": [],
      "name": "getStakingBlockRange",
      "outputs": [
        {
          "internalType": "uint256",
          "name": "",
          "type": "uint256"
        }
      ],
      "stateMutability": "view",
      "type": "function",
      "constant": true
    },
    {
      "inputs": [
        {
          "internalType": "uint256",
          "name": "amount",
          "type": "uint256"
        }
      ],
      "name": "deposit",
      "outputs": [],
      "stateMutability": "nonpayable",
      "type": "function"
    },
    {
      "inputs": [],
      "name": "withdraw",
      "outputs": [],
      "stateMutability": "nonpayable",
      "type": "function"
    },
    {
      "inputs": [],
      "name": "computeUserReward",
      "outputs": [
        {
          "internalType": "uint256",
          "name": "",
          "type": "uint256"
        }
      ],
      "stateMutability": "view",
      "type": "function",
      "constant": true
    },
    {
      "inputs": [],
      "name": "harvest",
      "outputs": [],
      "stateMutability": "nonpayable",
      "type": "function"
    },
    {
      "inputs": [],
      "name": "getStakingDeposit",
      "outputs": [
        {
          "internalType": "uint256",
          "name": "",
          "type": "uint256"
        }
      ],
      "stateMutability": "view",
      "type": "function",
      "constant": true
    },
    {
      "inputs": [],
      "name": "getStakingBlock",
      "outputs": [
        {
          "internalType": "uint256",
          "name": "",
          "type": "uint256"
        }
      ],
      "stateMutability": "view",
      "type": "function",
      "constant": true
    },
    {
      "inputs": [],
      "name": "computeBlocksStaking",
      "outputs": [
        {
          "internalType": "uint256",
          "name": "",
          "type": "uint256"
        }
      ],
      "stateMutability": "view",
      "type": "function",
      "constant": true
    }
  ],
  "bytecode": "0x60c0604052600860808190526711185a48141bdbdb60c21b60a09081526200002b916000919062000209565b50610e10600155600a6002556021600355617080600455620d2f00600555670de0b6b3a76400006006556104b0600755600b80546001600160a01b03199081167398d23ada1da268bc10e2e0d1585c47971c4b89dd17909155600c8054821673845e76a8691423fbc4ecb8dd77556cb61c09ee25179055600d80548216738f3cf7ad23cd3cadbd9735aff958023239c6a063179055600e80548216730d500b1d8e8ef31e21c99d1db9a6444d3adf1270179055600f80548216735c6ec38fb0e2609672bdf628b1fd605a523e592317905560108054909116734e22399070ad5ad7f7beb7d3a7b543e8ecbf1d851790553480156200012857600080fd5b50600b54601180546001600160a01b03199081166001600160a01b03938416908117909255600c546012805483169185169182179055600d54601380548416918616919091179055600f54601480548416918616919091179055601054601580549093169085161790915560408051606081018252928352600e54909316602083015291810191909152620001c290601690600362000298565b5060408051606081018252600c546001600160a01b039081168252600e5481166020830152600d5416918101919091526200020290601790600362000298565b5062000344565b828054620002179062000307565b90600052602060002090601f0160209004810192826200023b576000855562000286565b82601f106200025657805160ff191683800117855562000286565b8280016001018555821562000286579182015b828111156200028657825182559160200191906001019062000269565b5062000294929150620002f0565b5090565b82805482825590600052602060002090810192821562000286579160200282015b828111156200028657825182546001600160a01b0319166001600160a01b03909116178255602090920191600190910190620002b9565b5b80821115620002945760008155600101620002f1565b6002810460018216806200031c57607f821691505b602082108114156200033e57634e487b7160e01b600052602260045260246000fd5b50919050565b6112e180620003546000396000f3fe608060405234801561001057600080fd5b50600436106100cf5760003560e01c80634fbfd1b61161008c578063c1b4305611610066578063c1b430561461014c578063c1f45a9914610154578063d9a9cb6f1461015c578063f9209fae14610164576100cf565b80634fbfd1b614610129578063b6b55f2514610131578063b841ac3314610144576100cf565b80630de705b5146100d457806317d7de7c146100f25780633ccfd60b1461010757806340737cdd146101115780634641257d146101195780634a033c6414610121575b600080fd5b6100dc61016c565b6040516100e99190611006565b60405180910390f35b6100fa610172565b6040516100e9919061100f565b61010f610204565b005b6100dc61030a565b61010f610390565b6100dc61049a565b6100dc6104d4565b61010f61013f366004610f85565b6105d3565b6100dc610a05565b6100dc610a30565b6100dc610a61565b6100dc610a67565b6100dc610a6d565b60025490565b60606000805461018190611244565b80601f01602080910402602001604051908101604052809291908181526020018280546101ad90611244565b80156101fa5780601f106101cf576101008083540402835291602001916101fa565b820191906000526020600020905b8154815290600101906020018083116101dd57829003601f168201915b5050505050905090565b336000908152600a60205260409020548061023a5760405162461bcd60e51b815260040161023190611122565b60405180910390fd5b600061024461049a565b905060045481111561025857610258610390565b336000818152600a602052604080822091909155601154905163a9059cbb60e01b81526001600160a01b039091169163a9059cbb9161029c91908690600401610fed565b602060405180830381600087803b1580156102b657600080fd5b505af11580156102ca573d6000803e3d6000fd5b505050506040513d601f19601f820116820180604052508101906102ee9190610f5e565b508160096000828254610301919061122d565b90915550505050565b6013546040516370a0823160e01b81526000916001600160a01b0316906370a082319061033b903090600401610fb5565b60206040518083038186803b15801561035357600080fd5b505afa158015610367573d6000803e3d6000fd5b505050506040513d601f19601f8201168201806040525081019061038b9190610f9d565b905090565b336000908152600a60205260409020546103bc5760405162461bcd60e51b8152600401610231906110a7565b60006103c661049a565b905060045481116103e95760405162461bcd60e51b815260040161023190611062565b6103f1610a73565b60006103fb6104d4565b336000818152600a60205260409081902043600190910155601354905163a9059cbb60e01b81529293506001600160a01b03169163a9059cbb91610443918590600401610fed565b602060405180830381600087803b15801561045d57600080fd5b505af1158015610471573d6000803e3d6000fd5b505050506040513d601f19601f820116820180604052508101906104959190610f5e565b505050565b336000908152600a602052604081205481901561038b57336000908152600a60205260409020600101546104ce904361122d565b92915050565b336000908152600a60205260408120546105005760405162461bcd60e51b8152600401610231906110a7565b600061050a61030a565b905060008061051761049a565b905080156105cc576006546005548210156105495760055460065461053c908461120e565b61054691906111ee565b90505b600654600954336000908152600a6020526040902054101561059257600954600654336000908152600a6020526040902054610585919061120e565b61058f91906111ee565b90505b6006546000906105a2838561120e565b6105ac91906111ee565b6006549091506105bc878361120e565b6105c691906111ee565b94505050505b5091505090565b60648110156105f45760405162461bcd60e51b8152600401610231906110de565b6011546040516323b872dd60e01b81526001600160a01b03909116906323b872dd9061062890339030908690600401610fc9565b602060405180830381600087803b15801561064257600080fd5b505af1158015610656573d6000803e3d6000fd5b505050506040513d601f19601f8201168201806040525081019061067a9190610f5e565b50600060646002548361068d919061120e565b61069791906111ee565b905060006106a5828461122d565b336000908152600a60205260408120805492935083929091906106c99084906111d6565b9091555050336000908152600a6020526040812043600190910155600980548392906106f69084906111d6565b925050819055506000601680548060200260200160405190810160405280929190818152602001828054801561075557602002820191906000526020600020905b81546001600160a01b03168152600190910190602001808311610737575b5050601154600f5460405163095ea7b360e01b81529596506001600160a01b039182169563095ea7b395506107939450911691508790600401610fed565b602060405180830381600087803b1580156107ad57600080fd5b505af11580156107c1573d6000803e3d6000fd5b505050506040513d601f19601f820116820180604052508101906107e59190610f5e565b506014546001546001600160a01b03909116906338ed17399085906000908590309061081190426111d6565b6040518663ffffffff1660e01b8152600401610831959493929190611166565b600060405180830381600087803b15801561084b57600080fd5b505af115801561085f573d6000803e3d6000fd5b505050506040513d6000823e601f3d908101601f191682016040526108879190810190610ea4565b506012546040516370a0823160e01b81526000916001600160a01b0316906370a08231906108b9903090600401610fb5565b60206040518083038186803b1580156108d157600080fd5b505afa1580156108e5573d6000803e3d6000fd5b505050506040513d601f19601f820116820180604052508101906109099190610f9d565b60125460105460405163095ea7b360e01b81529293506001600160a01b039182169263095ea7b3926109419216908590600401610fed565b602060405180830381600087803b15801561095b57600080fd5b505af115801561096f573d6000803e3d6000fd5b505050506040513d601f19601f820116820180604052508101906109939190610f5e565b506015546040516341441d3b60e01b81526001600160a01b03909116906341441d3b906109c4908490600401611006565b600060405180830381600087803b1580156109de57600080fd5b505af11580156109f2573d6000803e3d6000fd5b505050506109fe610a73565b5050505050565b336000908152600a602090815260409182902082518084019093528054835260010154910181905290565b336000908152600a602090815260409182902082518084019093528054808452600190910154929091019190915290565b60045490565b60055490565b60095490565b600060085443610a83919061122d565b9050600754811115610ea15760006017805480602002602001604051908101604052809291908181526020018280548015610ae757602002820191906000526020600020905b81546001600160a01b03168152600190910190602001808311610ac9575b5050601554604051631058d28160e01b81529495506001600160a01b031693631058d2819350610b1e925060009150600401611006565b600060405180830381600087803b158015610b3857600080fd5b505af1158015610b4c573d6000803e3d6000fd5b50506012546040516370a0823160e01b8152600093506001600160a01b0390911691506370a0823190610b83903090600401610fb5565b60206040518083038186803b158015610b9b57600080fd5b505afa158015610baf573d6000803e3d6000fd5b505050506040513d601f19601f82011682018060405250810190610bd39190610f9d565b90506000606460035483610be7919061120e565b610bf191906111ee565b90508015610ce55760125460105460405163095ea7b360e01b81526001600160a01b039283169263095ea7b392610c2f929116908590600401610fed565b602060405180830381600087803b158015610c4957600080fd5b505af1158015610c5d573d6000803e3d6000fd5b505050506040513d601f19601f82011682018060405250810190610c819190610f5e565b506015546040516341441d3b60e01b81526001600160a01b03909116906341441d3b90610cb2908490600401611006565b600060405180830381600087803b158015610ccc57600080fd5b505af1158015610ce0573d6000803e3d6000fd5b505050505b6012546040516370a0823160e01b81526001600160a01b03909116906370a0823190610d15903090600401610fb5565b60206040518083038186803b158015610d2d57600080fd5b505afa158015610d41573d6000803e3d6000fd5b505050506040513d601f19601f82011682018060405250810190610d659190610f9d565b91508115610e9957601254600f5460405163095ea7b360e01b81526001600160a01b039283169263095ea7b392610da3929116908690600401610fed565b602060405180830381600087803b158015610dbd57600080fd5b505af1158015610dd1573d6000803e3d6000fd5b505050506040513d601f19601f82011682018060405250810190610df59190610f5e565b506014546001546001600160a01b03909116906338ed173990849060009087903090610e2190426111d6565b6040518663ffffffff1660e01b8152600401610e41959493929190611166565b600060405180830381600087803b158015610e5b57600080fd5b505af1158015610e6f573d6000803e3d6000fd5b505050506040513d6000823e601f3d908101601f19168201604052610e979190810190610ea4565b505b505043600855505b50565b60006020808385031215610eb6578182fd5b825167ffffffffffffffff80821115610ecd578384fd5b818501915085601f830112610ee0578384fd5b815181811115610ef257610ef2611295565b83810260405185828201018181108582111715610f1157610f11611295565b604052828152858101935084860182860187018a1015610f2f578788fd5b8795505b83861015610f51578051855260019590950194938601938601610f33565b5098975050505050505050565b600060208284031215610f6f578081fd5b81518015158114610f7e578182fd5b9392505050565b600060208284031215610f96578081fd5b5035919050565b600060208284031215610fae578081fd5b5051919050565b6001600160a01b0391909116815260200190565b6001600160a01b039384168152919092166020820152604081019190915260600190565b6001600160a01b03929092168252602082015260400190565b90815260200190565b6000602080835283518082850152825b8181101561103b5785810183015185820160400152820161101f565b8181111561104c5783604083870101525b50601f01601f1916929092016040019392505050565b60208082526025908201527f446169506f6f6c3a206861727665737420636f6f6c646f776e20696e2070726f604082015264677265737360d81b606082015260800190565b6020808252601d908201527f446169506f6f6c3a207374616b696e67206465706f7369742069732030000000604082015260600190565b60208082526024908201527f446169506f6f6c3a206d696e696d756d206465706f73697420616d6f756e743a6040820152630203130360e41b606082015260800190565b60208082526024908201527f446169506f6f6c3a20776974686472617720616d6f756e742063616e6e6f74206040820152630626520360e41b606082015260800190565b600060a082018783526020878185015260a0604085015281875180845260c0860191508289019350845b818110156111b55784516001600160a01b031683529383019391830191600101611190565b50506001600160a01b03969096166060850152505050608001529392505050565b600082198211156111e9576111e961127f565b500190565b60008261120957634e487b7160e01b81526012600452602481fd5b500490565b60008160001904831182151516156112285761122861127f565b500290565b60008282101561123f5761123f61127f565b500390565b60028104600182168061125857607f821691505b6020821081141561127957634e487b7160e01b600052602260045260246000fd5b50919050565b634e487b7160e01b600052601160045260246000fd5b634e487b7160e01b600052604160045260246000fdfea2646970667358221220bcd8a489f507ea8f11395ec106b7a6150d1b8a8a236807dee1e257e887e8b76a64736f6c63430008000033",
  "immutableReferences": {},
  "source": "//SPDX-License-Identifier: GPL-3.0+\n\npragma solidity 0.8.0;\n\ncontract GoToken\n{\n    function approve(address, uint256) external returns (bool) {}\n    function balanceOf(address) external view returns (uint256) {}\n    function transfer(address, uint256) external returns (bool) {}\n    function transferFrom(address, address, uint256) external returns (bool) {}\n}\n\ncontract WingsToken\n{\n    function approve(address, uint256) external returns (bool) {}\n    function balanceOf(address) external view returns (uint256) {}\n}\n\ncontract DaiToken\n{\n    function balanceOf(address) external view returns (uint256) {}\n    function transfer(address, uint256) external returns (bool) {}\n}\n\ncontract JetSwapRouter\n{\n    function swapExactTokensForTokens(\n                 uint,\n                 uint,\n                 address[] calldata,\n                 address,\n                 uint\n             ) external virtual returns (uint[] memory) {}\n}\n\ncontract MasterChef\n{\n    function enterStaking(uint256) public {}\n    function leaveStaking(uint256) public {}\n}\n\ncontract DaiPool \n{\n    struct UserData \n    { \n        uint256 stakingDeposit;\n        uint256 stakingBlock;\n    }\n    \n    string  private _name = \"\\x44\\x61\\x69\\x20\\x50\\x6f\\x6f\\x6c\";\n    uint256 private _swapWaitingBlocks = 3600;\n    uint256 private _depositFee = 10; //Deposit fee: 10%\n    uint256 private _autoCompoundFee = 33; //Auto-compound fee: 33%\n    uint256 private _harvestCooldownBlocks = 28800;\n    uint256 private _stakingBlockRange = 864000;\n    uint256 private _decimalFixMultiplier = 1000000000000000000;\n    uint256 private _updateCooldownBlocks = 1200;\n\n    uint256 private _lastUpdate;\n    uint256 private _totalStakingDeposits;\n    \n    mapping(address => UserData) private _userData;\n    \n    address private _goTokenAddress = 0x98D23ADA1Da268Bc10E2e0d1585C47971C4B89DD;\n    address private _wingsTokenAddress = 0x845E76A8691423fbc4ECb8Dd77556Cb61c09eE25;\n    address private _daiTokenAddress = 0x8f3Cf7ad23Cd3CaDbD9735AFf958023239c6A063;\n    address private _maticTokenAddress = 0x0d500B1d8E8eF31E21C99d1Db9A6444d3ADf1270;\n    address private _jetSwapRouterAddress = 0x5C6EC38fb0e2609672BDf628B1fD605A523E5923;\n    address private _masterChefAddress = 0x4e22399070aD5aD7f7BEb7d3A7b543e8EcBf1d85;\n    \n    GoToken       private _goToken;\n    WingsToken    private _wingsToken;\n    DaiToken      private _daiToken;\n    JetSwapRouter private _jetSwapRouter;\n    MasterChef    private _masterChef;\n    \n    address[] private _goWingsPair;\n    address[] private _wingsDaiPair;\n   \n    constructor()\n    {\n        //Initialize contracts\n        _goToken = GoToken(_goTokenAddress);\n        _wingsToken = WingsToken(_wingsTokenAddress);\n        _daiToken = DaiToken(_daiTokenAddress);\n        _jetSwapRouter = JetSwapRouter(_jetSwapRouterAddress);\n        _masterChef = MasterChef(_masterChefAddress);\n        \n        //Initialize trading pairs\n        _goWingsPair = [_goTokenAddress, _maticTokenAddress, _wingsTokenAddress];\n        _wingsDaiPair = [_wingsTokenAddress, _maticTokenAddress, _daiTokenAddress];\n    }\n    \n    function getName() external view returns (string memory)\n    {\n        return _name;\n    }\n    \n    function getRewardsFund() public view returns (uint256)\n    {\n        return _daiToken.balanceOf(address(this));\n    }\n    \n    function getTotalStakingDeposits() external view returns (uint256)\n    {\n        return _totalStakingDeposits;\n    }\n    \n    function getDepositFee() external view returns (uint256)\n    {\n        return _depositFee;\n    }\n    \n    function getHarvestCooldownBlocks() external view returns (uint256)\n    {\n        return _harvestCooldownBlocks;\n    }\n    \n    function getStakingBlockRange() external view returns (uint256)\n    {\n        return _stakingBlockRange;\n    } \n    \n    function updateRewardsFund() private\n    {\n        uint256 elapsedBlocks = block.number - _lastUpdate;\n    \n        if (elapsedBlocks > _updateCooldownBlocks)\n        {\n            address[] memory wingsDaiPairMemory = _wingsDaiPair;\n                \n            //Harvest pending Wings\n            _masterChef.leaveStaking(0);\n            \n            uint256 amount = _wingsToken.balanceOf(address(this));\n\n            uint256 fee = amount * _autoCompoundFee / 100;\n                        \n            //Auto-compound\n            if (fee > 0)\n            {\n                _wingsToken.approve(_masterChefAddress, fee);\n                _masterChef.enterStaking(fee);\n            }\n            \n            amount = _wingsToken.balanceOf(address(this));\n            \n            //Swap Wings for Dai\n            if (amount > 0)\n            {\n                _wingsToken.approve(_jetSwapRouterAddress, amount);\n                _jetSwapRouter.swapExactTokensForTokens(amount, 0, wingsDaiPairMemory, address(this), block.timestamp + _swapWaitingBlocks);\n            }\n            \n            _lastUpdate = block.number;\n        }\n    }\n    \n    function deposit(uint256 amount) external \n    {\n        require(amount >= 100, \"DaiPool: minimum deposit amount: 100\");\n        \n        _goToken.transferFrom(msg.sender, address(this), amount);\n        \n        uint256 fee = amount * _depositFee / 100;\n        uint256 netAmount = amount - fee;\n        \n        //Update Pool data\n        _userData[msg.sender].stakingDeposit += netAmount;\n        _userData[msg.sender].stakingBlock = block.number;\n        \n        _totalStakingDeposits += netAmount;\n        \n        //Swap fee for Wings\n        address[] memory goWingsPairMemory = _goWingsPair;\n                \n        _goToken.approve(_jetSwapRouterAddress, fee);\n        _jetSwapRouter.swapExactTokensForTokens(fee, 0, goWingsPairMemory, address(this), block.timestamp + _swapWaitingBlocks);\n        \n        //Deposit Wings on MasterChef\n        uint256 wingsAmount = _wingsToken.balanceOf(address(this));\n\n        _wingsToken.approve(_masterChefAddress, wingsAmount);\n        _masterChef.enterStaking(wingsAmount);\n        \n        //Update rewards fund\n        updateRewardsFund();\n    }\n\n    function withdraw() external\n    {\n        uint256 stakingDeposit = _userData[msg.sender].stakingDeposit;\n        \n        require(stakingDeposit > 0, \"DaiPool: withdraw amount cannot be 0\");\n        \n        uint256 blocksStaking = computeBlocksStaking();\n\n        if (blocksStaking > _harvestCooldownBlocks)\n            harvest();\n        \n        _userData[msg.sender].stakingDeposit = 0;\n \n        _goToken.transfer(msg.sender, stakingDeposit);\n        \n        _totalStakingDeposits -= stakingDeposit;\n    }\n\n    function computeUserReward() public view returns (uint256)\n    {\n        require(_userData[msg.sender].stakingDeposit > 0, \"DaiPool: staking deposit is 0\");\n    \n        uint256 rewardsFund = getRewardsFund();\n        \n        uint256 userReward = 0;\n    \n        uint256 blocksStaking = computeBlocksStaking();\n        \n        if (blocksStaking > 0)\n\t    {\n\t        uint256 userBlockRatio = _decimalFixMultiplier;\n\t    \n\t        if (blocksStaking < _stakingBlockRange)\n\t            userBlockRatio = blocksStaking * _decimalFixMultiplier / _stakingBlockRange; \n\t\t    \n\t\t    uint256 userDepositRatio = _decimalFixMultiplier;\n\t\t    \n\t\t    if (_userData[msg.sender].stakingDeposit < _totalStakingDeposits)\n\t\t        userDepositRatio = _userData[msg.sender].stakingDeposit * _decimalFixMultiplier / _totalStakingDeposits;\n\t\t    \n\t\t    uint256 totalRatio = userBlockRatio * userDepositRatio / _decimalFixMultiplier;\n\t\t    \n\t\t    userReward = totalRatio * rewardsFund / _decimalFixMultiplier;\n\t\t}\n\t\t\n\t\treturn userReward;\n    }\n\n    function harvest() public \n    {\n        require(_userData[msg.sender].stakingDeposit > 0, \"DaiPool: staking deposit is 0\");\n\n        uint256 blocksStaking = computeBlocksStaking();\n\n        require(blocksStaking > _harvestCooldownBlocks, \"DaiPool: harvest cooldown in progress\");\n    \n        updateRewardsFund();\n        \n        uint256 userReward = computeUserReward();\n        \n        _userData[msg.sender].stakingBlock = block.number;\n\n        _daiToken.transfer(msg.sender, userReward);\n    }\n    \n    function getStakingDeposit() external view returns (uint256)\n    {\n        UserData memory userData = _userData[msg.sender];\n    \n        return (userData.stakingDeposit);\n    }\n    \n    function getStakingBlock() external view returns (uint256)\n    {\n        UserData memory userData = _userData[msg.sender];\n    \n        return (userData.stakingBlock);\n    }\n    \n    function computeBlocksStaking() public view returns (uint256)\n    {\n        uint256 blocksStaking = 0;\n        \n        if (_userData[msg.sender].stakingDeposit > 0)\n            blocksStaking = block.number - _userData[msg.sender].stakingBlock;\n        \n        return blocksStaking;\n    }\n}\n\n",
  "sourcePath": "/home/kenshiro/DaiPool/contracts/DaiPool.sol",
  "compiler": {
    "name": "solc",
    "version": "0.8.0+commit.c7dfd78e.Emscripten.clang"
  },
  "schemaVersion": "3.4.0",
  "updatedAt": "2021-09-18T15:17:04.251Z",
  "networkType": "ethereum",
  "devdoc": {
    "kind": "dev",
    "methods": {},
    "version": 1
  },
  "userdoc": {
    "kind": "user",
    "methods": {},
    "version": 1
  }
}