{
  "contractName": "DaiToken",
  "abi": [
    {
      "inputs": [
        {
          "internalType": "address",
          "name": "",
          "type": "address"
        }
      ],
      "name": "balanceOf",
      "outputs": [
        {
          "internalType": "uint256",
          "name": "",
          "type": "uint256"
        }
      ],
      "stateMutability": "view",
      "type": "function"
    },
    {
      "inputs": [
        {
          "internalType": "address",
          "name": "",
          "type": "address"
        },
        {
          "internalType": "uint256",
          "name": "",
          "type": "uint256"
        }
      ],
      "name": "transfer",
      "outputs": [
        {
          "internalType": "bool",
          "name": "",
          "type": "bool"
        }
      ],
      "stateMutability": "nonpayable",
      "type": "function"
    }
  ],
  "bytecode": "0x608060405234801561001057600080fd5b5061012b806100206000396000f3fe6080604052348015600f57600080fd5b506004361060325760003560e01c806370a08231146037578063a9059cbb14605a575b600080fd5b60466042366004609d565b6074565b6040516051919060ec565b60405180910390f35b6069606536600460bb565b607a565b6040516051919060e1565b50600090565b600092915050565b80356001600160a01b0381168114609857600080fd5b919050565b60006020828403121560ad578081fd5b60b4826082565b9392505050565b6000806040838503121560cc578081fd5b60d3836082565b946020939093013593505050565b901515815260200190565b9081526020019056fea2646970667358221220b30aa2413234fe7f16c57e891166321438d55406e16be153a30a00e92adfbc1c64736f6c63430008000033",
  "immutableReferences": {},
  "source": "//SPDX-License-Identifier: GPL-3.0+\n\npragma solidity 0.8.0;\n\ncontract GoToken\n{\n    function approve(address, uint256) external returns (bool) {}\n    function balanceOf(address) external view returns (uint256) {}\n    function transfer(address, uint256) external returns (bool) {}\n    function transferFrom(address, address, uint256) external returns (bool) {}\n}\n\ncontract WingsToken\n{\n    function approve(address, uint256) external returns (bool) {}\n    function balanceOf(address) external view returns (uint256) {}\n}\n\ncontract DaiToken\n{\n    function balanceOf(address) external view returns (uint256) {}\n    function transfer(address, uint256) external returns (bool) {}\n}\n\ncontract JetSwapRouter\n{\n    function swapExactTokensForTokens(\n                 uint,\n                 uint,\n                 address[] calldata,\n                 address,\n                 uint\n             ) external virtual returns (uint[] memory) {}\n}\n\ncontract MasterChef\n{\n    function enterStaking(uint256) public {}\n    function leaveStaking(uint256) public {}\n}\n\ncontract DaiPool \n{\n    struct UserData \n    { \n        uint256 stakingDeposit;\n        uint256 stakingBlock;\n    }\n    \n    string  private _name = \"\\x44\\x61\\x69\\x20\\x50\\x6f\\x6f\\x6c\";\n    uint256 private _swapWaitingBlocks = 3600;\n    uint256 private _depositFee = 10; //Deposit fee: 10%\n    uint256 private _autoCompoundFee = 33; //Auto-compound fee: 33%\n    uint256 private _harvestCooldownBlocks = 28800;\n    uint256 private _stakingBlockRange = 864000;\n    uint256 private _decimalFixMultiplier = 1000000000000000000;\n    uint256 private _updateCooldownBlocks = 1200;\n\n    uint256 private _lastUpdate;\n    uint256 private _totalStakingDeposits;\n    \n    mapping(address => UserData) private _userData;\n    \n    address private _goTokenAddress = 0x98D23ADA1Da268Bc10E2e0d1585C47971C4B89DD;\n    address private _wingsTokenAddress = 0x845E76A8691423fbc4ECb8Dd77556Cb61c09eE25;\n    address private _daiTokenAddress = 0x490e379C9cFF64944bE82b849F8FD5972C7999A7;\n    address private _maticTokenAddress = 0x0d500B1d8E8eF31E21C99d1Db9A6444d3ADf1270;\n    address private _jetSwapRouterAddress = 0x5C6EC38fb0e2609672BDf628B1fD605A523E5923;\n    address private _masterChefAddress = 0x4e22399070aD5aD7f7BEb7d3A7b543e8EcBf1d85;\n    \n    GoToken       private _goToken;\n    WingsToken    private _wingsToken;\n    DaiToken      private _daiToken;\n    JetSwapRouter private _jetSwapRouter;\n    MasterChef    private _masterChef;\n    \n    address[] private _goWingsPair;\n    address[] private _wingsDaiPair;\n   \n    constructor()\n    {\n        //Initialize contracts\n        _goToken = GoToken(_goTokenAddress);\n        _wingsToken = WingsToken(_wingsTokenAddress);\n        _daiToken = DaiToken(_daiTokenAddress);\n        _jetSwapRouter = JetSwapRouter(_jetSwapRouterAddress);\n        _masterChef = MasterChef(_masterChefAddress);\n        \n        //Initialize trading pairs\n        _goWingsPair = [_goTokenAddress, _maticTokenAddress, _wingsTokenAddress];\n        _wingsDaiPair = [_wingsTokenAddress, _maticTokenAddress, _daiTokenAddress];\n    }\n    \n    function getName() external view returns (string memory)\n    {\n        return _name;\n    }\n    \n    function getRewardsFund() public view returns (uint256)\n    {\n        return _daiToken.balanceOf(address(this));\n    }\n    \n    function getTotalStakingDeposits() external view returns (uint256)\n    {\n        return _totalStakingDeposits;\n    }\n    \n    function getDepositFee() external view returns (uint256)\n    {\n        return _depositFee;\n    }\n    \n    function getHarvestCooldownBlocks() external view returns (uint256)\n    {\n        return _harvestCooldownBlocks;\n    }\n    \n    function getStakingBlockRange() external view returns (uint256)\n    {\n        return _stakingBlockRange;\n    } \n    \n    function updateRewardsFund() private\n    {\n        uint256 elapsedBlocks = block.number - _lastUpdate;\n    \n        if (elapsedBlocks > _updateCooldownBlocks)\n        {\n            address[] memory wingsDaiPairMemory = _wingsDaiPair;\n                \n            //Harvest pending Wings\n            _masterChef.leaveStaking(0);\n            \n            uint256 amount = _wingsToken.balanceOf(address(this));\n\n            uint256 fee = amount * _autoCompoundFee / 100;\n                        \n            //Auto-compound\n            if (fee > 0)\n            {\n                _wingsToken.approve(_masterChefAddress, fee);\n                _masterChef.enterStaking(fee);\n            }\n            \n            amount = _wingsToken.balanceOf(address(this));\n            \n            //Swap Wings for Dai\n            if (amount > 0)\n            {\n                _wingsToken.approve(_jetSwapRouterAddress, amount);\n                _jetSwapRouter.swapExactTokensForTokens(amount, 0, wingsDaiPairMemory, address(this), block.timestamp + _swapWaitingBlocks);\n            }\n            \n            _lastUpdate = block.number;\n        }\n    }\n    \n    function deposit(uint256 amount) external \n    {\n        require(amount >= 100, \"DaiPool: minimum deposit amount: 100\");\n        \n        _goToken.transferFrom(msg.sender, address(this), amount);\n        \n        uint256 fee = amount * _depositFee / 100;\n        uint256 netAmount = amount - fee;\n        \n        //Update Pool data\n        _userData[msg.sender].stakingDeposit += netAmount;\n        _userData[msg.sender].stakingBlock = block.number;\n        \n        _totalStakingDeposits += netAmount;\n        \n        //Swap fee for Wings\n        address[] memory goWingsPairMemory = _goWingsPair;\n                \n        _goToken.approve(_jetSwapRouterAddress, fee);\n        _jetSwapRouter.swapExactTokensForTokens(fee, 0, goWingsPairMemory, address(this), block.timestamp + _swapWaitingBlocks);\n        \n        //Deposit Wings on MasterChef\n        uint256 wingsAmount = _wingsToken.balanceOf(address(this));\n\n        _wingsToken.approve(_masterChefAddress, wingsAmount);\n        _masterChef.enterStaking(wingsAmount);\n        \n        //Update rewards fund\n        updateRewardsFund();\n    }\n\n    function withdraw() external\n    {\n        uint256 stakingDeposit = _userData[msg.sender].stakingDeposit;\n        \n        require(stakingDeposit > 0, \"DaiPool: withdraw amount cannot be 0\");\n        \n        uint256 blocksStaking = computeBlocksStaking();\n\n        if (blocksStaking > _harvestCooldownBlocks)\n            harvest();\n        \n        _userData[msg.sender].stakingDeposit = 0;\n \n        _goToken.transfer(msg.sender, stakingDeposit);\n        \n        _totalStakingDeposits -= stakingDeposit;\n    }\n    \n    function emergencyWithdraw() external\n    {\n        uint256 stakingDeposit = _userData[msg.sender].stakingDeposit;\n        \n        require(stakingDeposit > 0, \"DaiPool: withdraw amount cannot be 0\");\n        \n        _userData[msg.sender].stakingDeposit = 0;\n \n        _goToken.transfer(msg.sender, stakingDeposit);\n        \n        _totalStakingDeposits -= stakingDeposit;\n    }\n\n    function computeUserReward() public view returns (uint256)\n    {\n        require(_userData[msg.sender].stakingDeposit > 0, \"DaiPool: staking deposit is 0\");\n    \n        uint256 rewardsFund = getRewardsFund();\n        \n        uint256 userReward = 0;\n    \n        uint256 blocksStaking = computeBlocksStaking();\n        \n        if (blocksStaking > 0)\n\t    {\n\t        uint256 userBlockRatio = _decimalFixMultiplier;\n\t    \n\t        if (blocksStaking < _stakingBlockRange)\n\t            userBlockRatio = blocksStaking * _decimalFixMultiplier / _stakingBlockRange; \n\t\t    \n\t\t    uint256 userDepositRatio = _decimalFixMultiplier;\n\t\t    \n\t\t    if (_userData[msg.sender].stakingDeposit < _totalStakingDeposits)\n\t\t        userDepositRatio = _userData[msg.sender].stakingDeposit * _decimalFixMultiplier / _totalStakingDeposits;\n\t\t    \n\t\t    uint256 totalRatio = userBlockRatio * userDepositRatio / _decimalFixMultiplier;\n\t\t    \n\t\t    userReward = totalRatio * rewardsFund / _decimalFixMultiplier;\n\t\t}\n\t\t\n\t\treturn userReward;\n    }\n\n    function harvest() public \n    {\n        require(_userData[msg.sender].stakingDeposit > 0, \"DaiPool: staking deposit is 0\");\n\n        uint256 blocksStaking = computeBlocksStaking();\n\n        require(blocksStaking > _harvestCooldownBlocks, \"DaiPool: harvest cooldown in progress\");\n    \n        updateRewardsFund();\n        \n        uint256 userReward = computeUserReward();\n        \n        _userData[msg.sender].stakingBlock = block.number;\n\n        _daiToken.transfer(msg.sender, userReward);\n    }\n    \n    function getStakingDeposit() external view returns (uint256)\n    {\n        UserData memory userData = _userData[msg.sender];\n    \n        return (userData.stakingDeposit);\n    }\n    \n    function getStakingBlock() external view returns (uint256)\n    {\n        UserData memory userData = _userData[msg.sender];\n    \n        return (userData.stakingBlock);\n    }\n    \n    function computeBlocksStaking() public view returns (uint256)\n    {\n        uint256 blocksStaking = 0;\n        \n        if (_userData[msg.sender].stakingDeposit > 0)\n            blocksStaking = block.number - _userData[msg.sender].stakingBlock;\n        \n        return blocksStaking;\n    }\n}\n\n",
  "sourcePath": "/home/kenshiro/DaiPool/contracts/DaiPool.sol",
  "compiler": {
    "name": "solc",
    "version": "0.8.0+commit.c7dfd78e.Emscripten.clang"
  },
  "schemaVersion": "3.4.0",
  "updatedAt": "2021-09-21T17:49:45.654Z",
  "devdoc": {
    "kind": "dev",
    "methods": {},
    "version": 1
  },
  "userdoc": {
    "kind": "user",
    "methods": {},
    "version": 1
  }
}