{
  "contractName": "EthVault",
  "abi": [
    {
      "inputs": [],
      "stateMutability": "nonpayable",
      "type": "constructor"
    },
    {
      "inputs": [],
      "name": "getName",
      "outputs": [
        {
          "internalType": "string",
          "name": "",
          "type": "string"
        }
      ],
      "stateMutability": "view",
      "type": "function",
      "constant": true
    },
    {
      "inputs": [],
      "name": "getRewardsFund",
      "outputs": [
        {
          "internalType": "uint256",
          "name": "",
          "type": "uint256"
        }
      ],
      "stateMutability": "view",
      "type": "function",
      "constant": true
    },
    {
      "inputs": [],
      "name": "getTotalStakingDeposits",
      "outputs": [
        {
          "internalType": "uint256",
          "name": "",
          "type": "uint256"
        }
      ],
      "stateMutability": "view",
      "type": "function",
      "constant": true
    },
    {
      "inputs": [],
      "name": "getDepositFee",
      "outputs": [
        {
          "internalType": "uint256",
          "name": "",
          "type": "uint256"
        }
      ],
      "stateMutability": "view",
      "type": "function",
      "constant": true
    },
    {
      "inputs": [],
      "name": "getHarvestCooldownBlocks",
      "outputs": [
        {
          "internalType": "uint256",
          "name": "",
          "type": "uint256"
        }
      ],
      "stateMutability": "view",
      "type": "function",
      "constant": true
    },
    {
      "inputs": [],
      "name": "getStakingBlockRange",
      "outputs": [
        {
          "internalType": "uint256",
          "name": "",
          "type": "uint256"
        }
      ],
      "stateMutability": "view",
      "type": "function",
      "constant": true
    },
    {
      "inputs": [
        {
          "internalType": "uint256",
          "name": "amount",
          "type": "uint256"
        }
      ],
      "name": "deposit",
      "outputs": [],
      "stateMutability": "nonpayable",
      "type": "function"
    },
    {
      "inputs": [],
      "name": "withdraw",
      "outputs": [],
      "stateMutability": "nonpayable",
      "type": "function"
    },
    {
      "inputs": [],
      "name": "computeUserReward",
      "outputs": [
        {
          "internalType": "uint256",
          "name": "",
          "type": "uint256"
        }
      ],
      "stateMutability": "view",
      "type": "function",
      "constant": true
    },
    {
      "inputs": [],
      "name": "harvest",
      "outputs": [],
      "stateMutability": "nonpayable",
      "type": "function"
    },
    {
      "inputs": [],
      "name": "getStakingDeposit",
      "outputs": [
        {
          "internalType": "uint256",
          "name": "",
          "type": "uint256"
        }
      ],
      "stateMutability": "view",
      "type": "function",
      "constant": true
    },
    {
      "inputs": [],
      "name": "getStakingBlock",
      "outputs": [
        {
          "internalType": "uint256",
          "name": "",
          "type": "uint256"
        }
      ],
      "stateMutability": "view",
      "type": "function",
      "constant": true
    },
    {
      "inputs": [],
      "name": "computeBlocksStaking",
      "outputs": [
        {
          "internalType": "uint256",
          "name": "",
          "type": "uint256"
        }
      ],
      "stateMutability": "view",
      "type": "function",
      "constant": true
    }
  ],
  "bytecode": "0x60c0604052600e60808190526d115d1a195c995d5b4815985d5b1d60921b60a090815262000031916000919062000281565b50610e106001908155600a6002556003556021600455617080600555620d2f00600655670de0b6b3a76400006007556104b0600855600c80546001600160a01b03199081167398d23ada1da268bc10e2e0d1585c47971c4b89dd17909155600d8054821673845e76a8691423fbc4ecb8dd77556cb61c09ee25179055600e80548216737ceb23fd6bc0add59e62ac25578270cff1b9f619179055600f80548216730d500b1d8e8ef31e21c99d1db9a6444d3adf1270179055601080548216735c6ec38fb0e2609672bdf628b1fd605a523e59231790556011805482167305c1ec18455db5edcf1389b8fc215d56b42a15c017905560128054909116734e22399070ad5ad7f7beb7d3a7b543e8ecbf1d851790553480156200015157600080fd5b50600c54601380546001600160a01b03199081166001600160a01b0393841617909155600d546014805483169184169182179055600e546015805484169185169182179055601054601680548516918616919091179055601154601780548516918616919091179055601254601880549094169085161790925560408051606081018252928352600f54909316602083015291810191909152620001fa90601990600362000310565b5060408051606081018252600d546001600160a01b039081168252600f5481166020830152600c5416918101919091526200023a90601a90600362000310565b5060408051606081018252600d546001600160a01b039081168252600f5481166020830152600e5416918101919091526200027a90601b90600362000310565b50620003bc565b8280546200028f906200037f565b90600052602060002090601f016020900481019282620002b35760008555620002fe565b82601f10620002ce57805160ff1916838001178555620002fe565b82800160010185558215620002fe579182015b82811115620002fe578251825591602001919060010190620002e1565b506200030c92915062000368565b5090565b828054828255906000526020600020908101928215620002fe579160200282015b82811115620002fe57825182546001600160a01b0319166001600160a01b0390911617825560209092019160019091019062000331565b5b808211156200030c576000815560010162000369565b6002810460018216806200039457607f821691505b60208210811415620003b657634e487b7160e01b600052602260045260246000fd5b50919050565b61168d80620003cc6000396000f3fe608060405234801561001057600080fd5b50600436106100cf5760003560e01c80634fbfd1b61161008c578063c1b4305611610066578063c1b430561461014c578063c1f45a9914610154578063d9a9cb6f1461015c578063f9209fae14610164576100cf565b80634fbfd1b614610129578063b6b55f2514610131578063b841ac3314610144576100cf565b80630de705b5146100d457806317d7de7c146100f25780633ccfd60b1461010757806340737cdd146101115780634641257d146101195780634a033c6414610121575b600080fd5b6100dc61016c565b6040516100e9919061136d565b60405180910390f35b6100fa610172565b6040516100e99190611376565b61010f610204565b005b6100dc61030a565b61010f61039e565b6100dc6104a8565b6100dc6104e2565b61010f61013f3660046112ec565b6105e1565b6100dc610a1a565b6100dc610a45565b6100dc610a76565b6100dc610a7c565b6100dc610a82565b60025490565b606060008054610181906115f0565b80601f01602080910402602001604051908101604052809291908181526020018280546101ad906115f0565b80156101fa5780601f106101cf576101008083540402835291602001916101fa565b820191906000526020600020905b8154815290600101906020018083116101dd57829003601f168201915b5050505050905090565b336000908152600b60205260409020548061023a5760405162461bcd60e51b81526004016102319061140b565b60405180910390fd5b60006102446104a8565b90506005548111156102585761025861039e565b336000818152600b602052604080822091909155601554905163a9059cbb60e01b81526001600160a01b039091169163a9059cbb9161029c91908690600401611354565b602060405180830381600087803b1580156102b657600080fd5b505af11580156102ca573d6000803e3d6000fd5b505050506040513d601f19601f820116820180604052508101906102ee91906112c5565b5081600a600082825461030191906115d9565b90915550505050565b600a546015546040516370a0823160e01b8152600092916001600160a01b0316906370a082319061033f90309060040161131c565b60206040518083038186803b15801561035757600080fd5b505afa15801561036b573d6000803e3d6000fd5b505050506040513d601f19601f8201168201806040525081019061038f9190611304565b61039991906115d9565b905090565b336000908152600b60205260409020546103ca5760405162461bcd60e51b8152600401610231906114db565b60006103d46104a8565b905060055481116103f75760405162461bcd60e51b815260040161023190611495565b6103ff610a88565b60006104096104e2565b336000818152600b60205260409081902043600190910155601554905163a9059cbb60e01b81529293506001600160a01b03169163a9059cbb91610451918590600401611354565b602060405180830381600087803b15801561046b57600080fd5b505af115801561047f573d6000803e3d6000fd5b505050506040513d601f19601f820116820180604052508101906104a391906112c5565b505050565b336000908152600b602052604081205481901561039957336000908152600b60205260409020600101546104dc90436115d9565b92915050565b336000908152600b602052604081205461050e5760405162461bcd60e51b8152600401610231906114db565b600061051861030a565b90506000806105256104a8565b905080156105da576007546006548210156105575760065460075461054a90846115ba565b610554919061159a565b90505b600754600a54336000908152600b602052604090205410156105a057600a54600754336000908152600b602052604090205461059391906115ba565b61059d919061159a565b90505b6007546000906105b083856115ba565b6105ba919061159a565b6007549091506105ca87836115ba565b6105d4919061159a565b94505050505b5091505090565b60648110156106025760405162461bcd60e51b815260040161023190611450565b6015546040516323b872dd60e01b81526001600160a01b03909116906323b872dd9061063690339030908690600401611330565b602060405180830381600087803b15801561065057600080fd5b505af1158015610664573d6000803e3d6000fd5b505050506040513d601f19601f8201168201806040525081019061068891906112c5565b50600060646002548361069b91906115ba565b6106a5919061159a565b905060006106b382846115d9565b336000908152600b60205260408120805492935083929091906106d7908490611582565b9091555050336000908152600b6020526040812043600190910155600a8054839290610704908490611582565b925050819055506000601980548060200260200160405190810160405280929190818152602001828054801561076357602002820191906000526020600020905b81546001600160a01b03168152600190910190602001808311610745575b505060155460105460405163095ea7b360e01b81529596506001600160a01b039182169563095ea7b395506107a19450911691508790600401611354565b602060405180830381600087803b1580156107bb57600080fd5b505af11580156107cf573d6000803e3d6000fd5b505050506040513d601f19601f820116820180604052508101906107f391906112c5565b506016546001546001600160a01b03909116906338ed17399085906000908590309061081f9042611582565b6040518663ffffffff1660e01b815260040161083f959493929190611512565b600060405180830381600087803b15801561085957600080fd5b505af115801561086d573d6000803e3d6000fd5b505050506040513d6000823e601f3d908101601f19168201604052610895919081019061120b565b506014546040516370a0823160e01b81526000916001600160a01b0316906370a08231906108c790309060040161131c565b60206040518083038186803b1580156108df57600080fd5b505afa1580156108f3573d6000803e3d6000fd5b505050506040513d601f19601f820116820180604052508101906109179190611304565b90508015610a0b5760145460125460405163095ea7b360e01b81526001600160a01b039283169263095ea7b392610955929116908590600401611354565b602060405180830381600087803b15801561096f57600080fd5b505af1158015610983573d6000803e3d6000fd5b505050506040513d601f19601f820116820180604052508101906109a791906112c5565b506018546040516341441d3b60e01b81526001600160a01b03909116906341441d3b906109d890849060040161136d565b600060405180830381600087803b1580156109f257600080fd5b505af1158015610a06573d6000803e3d6000fd5b505050505b610a13610a88565b5050505050565b336000908152600b602090815260409182902082518084019093528054835260010154910181905290565b336000908152600b602090815260409182902082518084019093528054808452600190910154929091019190915290565b60055490565b60065490565b600a5490565b600060095443610a9891906115d9565b9050600854811115610ee4576000601b805480602002602001604051908101604052809291908181526020018280548015610afc57602002820191906000526020600020905b81546001600160a01b03168152600190910190602001808311610ade575b5050601854604051631058d28160e01b81529495506001600160a01b031693631058d2819350610b3392506000915060040161136d565b600060405180830381600087803b158015610b4d57600080fd5b505af1158015610b61573d6000803e3d6000fd5b50506014546040516370a0823160e01b8152600093506001600160a01b0390911691506370a0823190610b9890309060040161131c565b60206040518083038186803b158015610bb057600080fd5b505afa158015610bc4573d6000803e3d6000fd5b505050506040513d601f19601f82011682018060405250810190610be89190611304565b90506000606460035483610bfc91906115ba565b610c06919061159a565b90506000606460045484610c1a91906115ba565b610c24919061159a565b90508115610c3557610c3582610ee7565b8015610d275760145460125460405163095ea7b360e01b81526001600160a01b039283169263095ea7b392610c71929116908590600401611354565b602060405180830381600087803b158015610c8b57600080fd5b505af1158015610c9f573d6000803e3d6000fd5b505050506040513d601f19601f82011682018060405250810190610cc391906112c5565b506018546040516341441d3b60e01b81526001600160a01b03909116906341441d3b90610cf490849060040161136d565b600060405180830381600087803b158015610d0e57600080fd5b505af1158015610d22573d6000803e3d6000fd5b505050505b6014546040516370a0823160e01b81526001600160a01b03909116906370a0823190610d5790309060040161131c565b60206040518083038186803b158015610d6f57600080fd5b505afa158015610d83573d6000803e3d6000fd5b505050506040513d601f19601f82011682018060405250810190610da79190611304565b92508215610edb5760145460105460405163095ea7b360e01b81526001600160a01b039283169263095ea7b392610de5929116908790600401611354565b602060405180830381600087803b158015610dff57600080fd5b505af1158015610e13573d6000803e3d6000fd5b505050506040513d601f19601f82011682018060405250810190610e3791906112c5565b506016546001546001600160a01b03909116906338ed173990859060009088903090610e639042611582565b6040518663ffffffff1660e01b8152600401610e83959493929190611512565b600060405180830381600087803b158015610e9d57600080fd5b505af1158015610eb1573d6000803e3d6000fd5b505050506040513d6000823e601f3d908101601f19168201604052610ed9919081019061120b565b505b50504360095550505b50565b60008111610f075760405162461bcd60e51b8152600401610231906113c9565b6000601a805480602002602001604051908101604052809291908181526020018280548015610f5f57602002820191906000526020600020905b81546001600160a01b03168152600190910190602001808311610f41575b505060145460105460405163095ea7b360e01b81529596506001600160a01b039182169563095ea7b39550610f9d9450911691508690600401611354565b602060405180830381600087803b158015610fb757600080fd5b505af1158015610fcb573d6000803e3d6000fd5b505050506040513d601f19601f82011682018060405250810190610fef91906112c5565b506016546001546001600160a01b03909116906338ed17399084906000908590309061101b9042611582565b6040518663ffffffff1660e01b815260040161103b959493929190611512565b600060405180830381600087803b15801561105557600080fd5b505af1158015611069573d6000803e3d6000fd5b505050506040513d6000823e601f3d908101601f19168201604052611091919081019061120b565b506013546040516370a0823160e01b81526000916001600160a01b0316906370a08231906110c390309060040161131c565b60206040518083038186803b1580156110db57600080fd5b505afa1580156110ef573d6000803e3d6000fd5b505050506040513d601f19601f820116820180604052508101906111139190611304565b905080156104a35760135460115460405163095ea7b360e01b81526001600160a01b039283169263095ea7b392611151929116908590600401611354565b602060405180830381600087803b15801561116b57600080fd5b505af115801561117f573d6000803e3d6000fd5b505050506040513d601f19601f820116820180604052508101906111a391906112c5565b5060175460405163f14faf6f60e01b81526001600160a01b039091169063f14faf6f906111d490849060040161136d565b600060405180830381600087803b1580156111ee57600080fd5b505af1158015611202573d6000803e3d6000fd5b50505050505050565b6000602080838503121561121d578182fd5b825167ffffffffffffffff80821115611234578384fd5b818501915085601f830112611247578384fd5b81518181111561125957611259611641565b8381026040518582820101818110858211171561127857611278611641565b604052828152858101935084860182860187018a1015611296578788fd5b8795505b838610156112b857805185526001959095019493860193860161129a565b5098975050505050505050565b6000602082840312156112d6578081fd5b815180151581146112e5578182fd5b9392505050565b6000602082840312156112fd578081fd5b5035919050565b600060208284031215611315578081fd5b5051919050565b6001600160a01b0391909116815260200190565b6001600160a01b039384168152919092166020820152604081019190915260600190565b6001600160a01b03929092168252602082015260400190565b90815260200190565b6000602080835283518082850152825b818110156113a257858101830151858201604001528201611386565b818111156113b35783604083870101525b50601f01601f1916929092016040019392505050565b60208082526022908201527f4574685661756c743a2057696e677320616d6f756e742063616e6e6f74206265604082015261020360f41b606082015260800190565b60208082526025908201527f4574685661756c743a20776974686472617720616d6f756e742063616e6e6f74604082015264020626520360dc1b606082015260800190565b60208082526025908201527f4574685661756c743a206d696e696d756d206465706f73697420616d6f756e7460408201526403a203130360dc1b606082015260800190565b60208082526026908201527f4574685661756c743a206861727665737420636f6f6c646f776e20696e2070726040820152656f677265737360d01b606082015260800190565b6020808252601e908201527f4574685661756c743a207374616b696e67206465706f73697420697320300000604082015260600190565b600060a082018783526020878185015260a0604085015281875180845260c0860191508289019350845b818110156115615784516001600160a01b03168352938301939183019160010161153c565b50506001600160a01b03969096166060850152505050608001529392505050565b600082198211156115955761159561162b565b500190565b6000826115b557634e487b7160e01b81526012600452602481fd5b500490565b60008160001904831182151516156115d4576115d461162b565b500290565b6000828210156115eb576115eb61162b565b500390565b60028104600182168061160457607f821691505b6020821081141561162557634e487b7160e01b600052602260045260246000fd5b50919050565b634e487b7160e01b600052601160045260246000fd5b634e487b7160e01b600052604160045260246000fdfea2646970667358221220fbda45d527461a57ef5e17be655cb8d8fa966465fff4ba4602daf9fd2572a9bc64736f6c63430008000033",
  "immutableReferences": {},
  "source": "//SPDX-License-Identifier: GPL-3.0+\n\npragma solidity 0.8.0;\n\ncontract GoToken\n{\n    function approve(address, uint256) external returns (bool) {}\n    function balanceOf(address) external view returns (uint256) {}\n}\n\ncontract WingsToken\n{\n    function approve(address, uint256) external returns (bool) {}\n    function balanceOf(address) external view returns (uint256) {}\n}\n\ncontract EthereumToken\n{\n    function approve(address, uint256) external returns (bool) {}\n    function balanceOf(address) external view returns (uint256) {}\n    function transfer(address, uint256) external returns (bool) {}\n    function transferFrom(address, address, uint256) external returns (bool) {}\n}\n\ncontract JetSwapRouter\n{\n    function swapExactTokensForTokens(\n                 uint,\n                 uint,\n                 address[] calldata,\n                 address,\n                 uint\n             ) external virtual returns (uint[] memory) {}\n}\n\ncontract GoFarm\n{\n    function donate(uint256) external {}\n}\n\ncontract MasterChef\n{\n    function enterStaking(uint256) public {}\n    function leaveStaking(uint256) public {}\n}\n\ncontract EthVault \n{\n    struct UserData \n    { \n        uint256 stakingDeposit;\n        uint256 stakingBlock;\n    }\n    \n    string  private _name = \"\\x45\\x74\\x68\\x65\\x72\\x65\\x75\\x6d\\x20\\x56\\x61\\x75\\x6c\\x74\";\n    uint256 private _swapWaitingBlocks = 3600;\n    uint256 private _depositFee = 10; //Deposit fee: 10%\n    uint256 private _performanceFee = 1; //Performance fee: 1%\n    uint256 private _autoCompoundFee = 33; //Auto-compound fee: 33%\n    uint256 private _harvestCooldownBlocks = 28800;\n    uint256 private _stakingBlockRange = 864000;\n    uint256 private _decimalFixMultiplier = 1000000000000000000;\n    uint256 private _updateCooldownBlocks = 1200;\n\n    uint256 private _lastUpdate;\n    uint256 private _totalStakingDeposits;\n    \n    mapping(address => UserData) private _userData;\n    \n    address private _goTokenAddress = 0x98D23ADA1Da268Bc10E2e0d1585C47971C4B89DD;\n    address private _wingsTokenAddress = 0x845E76A8691423fbc4ECb8Dd77556Cb61c09eE25;\n    address private _ethereumTokenAddress = 0x7ceB23fD6bC0adD59E62ac25578270cFf1b9f619;\n    address private _maticTokenAddress = 0x0d500B1d8E8eF31E21C99d1Db9A6444d3ADf1270;\n    address private _jetSwapRouterAddress = 0x5C6EC38fb0e2609672BDf628B1fD605A523E5923;\n    address private _goFarmAddress = 0x05C1EC18455dB5edcf1389B8fC215d56B42A15C0;\n    address private _masterChefAddress = 0x4e22399070aD5aD7f7BEb7d3A7b543e8EcBf1d85;\n        \n    GoToken       private _goToken;\n    WingsToken    private _wingsToken;\n    EthereumToken private _ethereumToken;\n    JetSwapRouter private _jetSwapRouter;\n    GoFarm        private _goFarm;\n    MasterChef    private _masterChef;\n    \n    address[] private _ethereumWingsPair;\n    address[] private _wingsGoPair;\n    address[] private _wingsEthereumPair;\n   \n    constructor()\n    {\n        //Initialize contracts\n        _goToken = GoToken(_goTokenAddress);\n        _wingsToken = WingsToken(_wingsTokenAddress);\n        _ethereumToken = EthereumToken(_ethereumTokenAddress);\n        _jetSwapRouter = JetSwapRouter(_jetSwapRouterAddress);\n        _goFarm = GoFarm(_goFarmAddress);\n        _masterChef = MasterChef(_masterChefAddress);\n        \n        //Initialize trading pairs\n        _ethereumWingsPair = [_ethereumTokenAddress, _maticTokenAddress, _wingsTokenAddress];\n        _wingsGoPair       = [_wingsTokenAddress, _maticTokenAddress, _goTokenAddress];\n        _wingsEthereumPair = [_wingsTokenAddress, _maticTokenAddress, _ethereumTokenAddress];\n    }\n    \n    function getName() external view returns (string memory)\n    {\n        return _name;\n    }\n    \n    function getRewardsFund() public view returns (uint256)\n    {\n        return _ethereumToken.balanceOf(address(this)) - _totalStakingDeposits;\n    }\n    \n    function getTotalStakingDeposits() external view returns (uint256)\n    {\n        return _totalStakingDeposits;\n    }\n    \n    function getDepositFee() external view returns (uint256)\n    {\n        return _depositFee;\n    }\n    \n    function getHarvestCooldownBlocks() external view returns (uint256)\n    {\n        return _harvestCooldownBlocks;\n    }\n    \n    function getStakingBlockRange() external view returns (uint256)\n    {\n        return _stakingBlockRange;\n    } \n    \n    function buyGoToken(uint256 wingsAmount) private\n    {\n        require(wingsAmount > 0, \"EthVault: Wings amount cannot be 0\");\n    \n        address[] memory wingsGoPairMemory = _wingsGoPair;\n        \n        //Swap Wings for Gō\n        _wingsToken.approve(_jetSwapRouterAddress, wingsAmount);\n        _jetSwapRouter.swapExactTokensForTokens(wingsAmount, 0, wingsGoPairMemory, address(this), block.timestamp + _swapWaitingBlocks);\n        \n        //Donate to Gō farm\n        uint256 goAmount = _goToken.balanceOf(address(this));\n        \n        if (goAmount > 0)\n        {\n            _goToken.approve(_goFarmAddress, goAmount);\n            _goFarm.donate(goAmount);\n        }\n    }\n    \n    function updateRewardsFund() private\n    {\n        uint256 elapsedBlocks = block.number - _lastUpdate;\n    \n        if (elapsedBlocks > _updateCooldownBlocks)\n        {\n            address[] memory wingsEthereumPairMemory = _wingsEthereumPair;\n                \n            //Harvest pending Wings\n            _masterChef.leaveStaking(0);\n            \n            uint256 wingsAmount = _wingsToken.balanceOf(address(this));\n            \n            uint256 performanceFeeAmount = wingsAmount * _performanceFee / 100;\n            uint256 autoCompoundFeeAmount = wingsAmount * _autoCompoundFee / 100;\n            \n            //Buy Gō and donate it to Gō farm\n            if (performanceFeeAmount > 0)\n                buyGoToken(performanceFeeAmount);\n                \n            //Auto-compound\n            if (autoCompoundFeeAmount > 0)\n            {\n                _wingsToken.approve(_masterChefAddress, autoCompoundFeeAmount);\n                _masterChef.enterStaking(autoCompoundFeeAmount);\n            }\n            \n            //Swap Wings for Ethereum\n            wingsAmount = _wingsToken.balanceOf(address(this));\n            \n            if (wingsAmount > 0)\n            {\n                _wingsToken.approve(_jetSwapRouterAddress, wingsAmount);\n                _jetSwapRouter.swapExactTokensForTokens(wingsAmount, 0, wingsEthereumPairMemory, address(this), block.timestamp + _swapWaitingBlocks);\n            }\n            \n            _lastUpdate = block.number;\n        }\n    }\n    \n    function deposit(uint256 amount) external \n    {\n        require(amount >= 100, \"EthVault: minimum deposit amount: 100\");\n        \n        _ethereumToken.transferFrom(msg.sender, address(this), amount);\n        \n        uint256 fee = amount * _depositFee / 100;\n        uint256 netAmount = amount - fee;\n        \n        //Update Vault data\n        _userData[msg.sender].stakingDeposit += netAmount;\n        _userData[msg.sender].stakingBlock = block.number;\n        \n        _totalStakingDeposits += netAmount;\n        \n        //Swap deposit fee for Wings\n        address[] memory ethereumWingsPairMemory = _ethereumWingsPair;\n        \n        _ethereumToken.approve(_jetSwapRouterAddress, fee);\n        _jetSwapRouter.swapExactTokensForTokens(fee, 0, ethereumWingsPairMemory, address(this), block.timestamp + _swapWaitingBlocks);\n        \n        //Deposit Wings on JetSwap Pool\n        uint256 wingsAmount = _wingsToken.balanceOf(address(this));\n            \n        if (wingsAmount > 0)\n        {\n            _wingsToken.approve(_masterChefAddress, wingsAmount);\n            _masterChef.enterStaking(wingsAmount);\n        }\n        \n        //Update rewards fund\n        updateRewardsFund();\n    }\n\n    function withdraw() external\n    {\n        uint256 stakingDeposit = _userData[msg.sender].stakingDeposit;\n        \n        require(stakingDeposit > 0, \"EthVault: withdraw amount cannot be 0\");\n        \n        uint256 blocksStaking = computeBlocksStaking();\n\n        if (blocksStaking > _harvestCooldownBlocks)\n            harvest();\n        \n        _userData[msg.sender].stakingDeposit = 0;\n        \n        _ethereumToken.transfer(msg.sender, stakingDeposit);\n        \n        _totalStakingDeposits -= stakingDeposit;\n    }\n\n    function computeUserReward() public view returns (uint256)\n    {\n        require(_userData[msg.sender].stakingDeposit > 0, \"EthVault: staking deposit is 0\");\n    \n        uint256 rewardsFund = getRewardsFund();\n        \n        uint256 userReward = 0;\n    \n        uint256 blocksStaking = computeBlocksStaking();\n        \n        if (blocksStaking > 0)\n\t    {\n\t        uint256 userBlockRatio = _decimalFixMultiplier;\n\t    \n\t        if (blocksStaking < _stakingBlockRange)\n\t            userBlockRatio = blocksStaking * _decimalFixMultiplier / _stakingBlockRange; \n\t\t    \n\t\t    uint256 userDepositRatio = _decimalFixMultiplier;\n\t\t    \n\t\t    if (_userData[msg.sender].stakingDeposit < _totalStakingDeposits)\n\t\t        userDepositRatio = _userData[msg.sender].stakingDeposit * _decimalFixMultiplier / _totalStakingDeposits;\n\t\t    \n\t\t    uint256 totalRatio = userBlockRatio * userDepositRatio / _decimalFixMultiplier;\n\t\t    \n\t\t    userReward = totalRatio * rewardsFund / _decimalFixMultiplier;\n\t\t}\n\t\t\n\t\treturn userReward;\n    }\n\n    function harvest() public \n    {\n        require(_userData[msg.sender].stakingDeposit > 0, \"EthVault: staking deposit is 0\");\n\n        uint256 blocksStaking = computeBlocksStaking();\n\n        require(blocksStaking > _harvestCooldownBlocks, \"EthVault: harvest cooldown in progress\");\n    \n        updateRewardsFund();\n        \n        uint256 userReward = computeUserReward();\n        \n        _userData[msg.sender].stakingBlock = block.number;\n\n        _ethereumToken.transfer(msg.sender, userReward);\n    }\n    \n    function getStakingDeposit() external view returns (uint256)\n    {\n        UserData memory userData = _userData[msg.sender];\n    \n        return (userData.stakingDeposit);\n    }\n    \n    function getStakingBlock() external view returns (uint256)\n    {\n        UserData memory userData = _userData[msg.sender];\n    \n        return (userData.stakingBlock);\n    }\n    \n    function computeBlocksStaking() public view returns (uint256)\n    {\n        uint256 blocksStaking = 0;\n        \n        if (_userData[msg.sender].stakingDeposit > 0)\n            blocksStaking = block.number - _userData[msg.sender].stakingBlock;\n        \n        return blocksStaking;\n    }\n}\n\n",
  "sourcePath": "/home/kenshiro/EthVault/contracts/EthVault.sol",
  "compiler": {
    "name": "solc",
    "version": "0.8.0+commit.c7dfd78e.Emscripten.clang"
  },
  "schemaVersion": "3.4.0",
  "updatedAt": "2021-09-03T11:37:09.586Z",
  "networkType": "ethereum",
  "devdoc": {
    "kind": "dev",
    "methods": {},
    "version": 1
  },
  "userdoc": {
    "kind": "user",
    "methods": {},
    "version": 1
  }
}