{
  "contractName": "Ginko",
  "abi": [
    {
      "inputs": [],
      "stateMutability": "nonpayable",
      "type": "constructor"
    },
    {
      "inputs": [],
      "name": "getName",
      "outputs": [
        {
          "internalType": "string",
          "name": "",
          "type": "string"
        }
      ],
      "stateMutability": "view",
      "type": "function",
      "constant": true
    },
    {
      "inputs": [],
      "name": "getRewardsFund",
      "outputs": [
        {
          "internalType": "uint256",
          "name": "",
          "type": "uint256"
        }
      ],
      "stateMutability": "view",
      "type": "function",
      "constant": true
    },
    {
      "inputs": [],
      "name": "getTotalStakingDeposits",
      "outputs": [
        {
          "internalType": "uint256",
          "name": "",
          "type": "uint256"
        }
      ],
      "stateMutability": "view",
      "type": "function",
      "constant": true
    },
    {
      "inputs": [],
      "name": "getDepositFee",
      "outputs": [
        {
          "internalType": "uint256",
          "name": "",
          "type": "uint256"
        }
      ],
      "stateMutability": "view",
      "type": "function",
      "constant": true
    },
    {
      "inputs": [],
      "name": "getHarvestCooldownBlocks",
      "outputs": [
        {
          "internalType": "uint256",
          "name": "",
          "type": "uint256"
        }
      ],
      "stateMutability": "view",
      "type": "function",
      "constant": true
    },
    {
      "inputs": [],
      "name": "getStakingBlockRange",
      "outputs": [
        {
          "internalType": "uint256",
          "name": "",
          "type": "uint256"
        }
      ],
      "stateMutability": "view",
      "type": "function",
      "constant": true
    },
    {
      "inputs": [
        {
          "internalType": "uint256",
          "name": "amount",
          "type": "uint256"
        }
      ],
      "name": "deposit",
      "outputs": [],
      "stateMutability": "nonpayable",
      "type": "function"
    },
    {
      "inputs": [],
      "name": "withdraw",
      "outputs": [],
      "stateMutability": "nonpayable",
      "type": "function"
    },
    {
      "inputs": [],
      "name": "emergencyWithdraw",
      "outputs": [],
      "stateMutability": "nonpayable",
      "type": "function"
    },
    {
      "inputs": [],
      "name": "computeUserReward",
      "outputs": [
        {
          "internalType": "uint256",
          "name": "",
          "type": "uint256"
        }
      ],
      "stateMutability": "view",
      "type": "function",
      "constant": true
    },
    {
      "inputs": [],
      "name": "harvest",
      "outputs": [],
      "stateMutability": "nonpayable",
      "type": "function"
    },
    {
      "inputs": [],
      "name": "getStakingDeposit",
      "outputs": [
        {
          "internalType": "uint256",
          "name": "",
          "type": "uint256"
        }
      ],
      "stateMutability": "view",
      "type": "function",
      "constant": true
    },
    {
      "inputs": [],
      "name": "getStakingBlock",
      "outputs": [
        {
          "internalType": "uint256",
          "name": "",
          "type": "uint256"
        }
      ],
      "stateMutability": "view",
      "type": "function",
      "constant": true
    },
    {
      "inputs": [],
      "name": "computeBlocksStaking",
      "outputs": [
        {
          "internalType": "uint256",
          "name": "",
          "type": "uint256"
        }
      ],
      "stateMutability": "view",
      "type": "function",
      "constant": true
    },
    {
      "inputs": [
        {
          "internalType": "address",
          "name": "",
          "type": "address"
        },
        {
          "internalType": "address",
          "name": "",
          "type": "address"
        },
        {
          "internalType": "uint256",
          "name": "",
          "type": "uint256"
        },
        {
          "internalType": "bytes",
          "name": "",
          "type": "bytes"
        }
      ],
      "name": "onERC721Received",
      "outputs": [
        {
          "internalType": "bytes4",
          "name": "",
          "type": "bytes4"
        }
      ],
      "stateMutability": "pure",
      "type": "function",
      "constant": true
    }
  ],
  "bytecode": "0x60c0604052600660808190526547696e6bc58d60d01b60a0908152620000299160009190620002b8565b50610e106001908155600a60025560038190556021600455617080600555620d2f00600655670de0b6b3a76400006007556104b0600855600c80546001600160a01b03199081167398d23ada1da268bc10e2e0d1585c47971c4b89dd17909155600d805482167352a7f40bb6e9bd9183071cdbdd3a977d713f2e34179055600e8054821673a3fa99a148fa48d14ed51d610c367c61876997f1179055600f80548216730d500b1d8e8ef31e21c99d1db9a6444d3adf127017905560108054821673a5e0829caced8ffdd4de3c43696c57f7d7a678ff1790556011805482167305c1ec18455db5edcf1389b8fc215d56b42a15c017905560128054821673c67abda25d0421fe9dc1afd64183b179a426a2561790556013805490911673931f0857130bcd221d30c06d80ad98affe3aa526179055601e805460ff191690911790553480156200017657600080fd5b50600c54601480546001600160a01b03199081166001600160a01b0393841617909155600d546015805483169184169182179055600e546016805484169185169182179055601054601780548516918616919091179055601154601880548516918616919091179055601254601980548516918616919091179055601354601a80549094169085161790925560408051606081018252928352600f549093166020830152918101919091526200023190601b90600362000347565b5060408051606081018252600d546001600160a01b039081168252600f5481166020830152600c5416918101919091526200027190601c90600362000347565b5060408051606081018252600d546001600160a01b039081168252600f5481166020830152600e541691810191909152620002b190601d90600362000347565b50620003f3565b828054620002c690620003b6565b90600052602060002090601f016020900481019282620002ea576000855562000335565b82601f106200030557805160ff191683800117855562000335565b8280016001018555821562000335579182015b828111156200033557825182559160200191906001019062000318565b50620003439291506200039f565b5090565b82805482825590600052602060002090810192821562000335579160200282015b828111156200033557825182546001600160a01b0319166001600160a01b0390911617825560209092019160019091019062000368565b5b80821115620003435760008155600101620003a0565b600281046001821680620003cb57607f821691505b60208210811415620003ed57634e487b7160e01b600052602260045260246000fd5b50919050565b61197e80620004036000396000f3fe608060405234801561001057600080fd5b50600436106100f55760003560e01c80634fbfd1b611610097578063c1f45a9911610066578063c1f45a991461019a578063d9a9cb6f146101a2578063db2e21bc146101aa578063f9209fae146101b2576100f5565b80634fbfd1b61461016f578063b6b55f2514610177578063b841ac331461018a578063c1b4305614610192576100f5565b80633ccfd60b116100d35780633ccfd60b1461014d57806340737cdd146101575780634641257d1461015f5780634a033c6414610167576100f5565b80630de705b5146100fa578063150b7a021461011857806317d7de7c14610138575b600080fd5b6101026101ba565b60405161010f91906117fa565b60405180910390f35b61012b610126366004611444565b6101c0565b60405161010f919061165d565b6101406101d1565b60405161010f9190611672565b610155610263565b005b61010261028c565b610155610320565b610102610433565b61010261046d565b6101556101853660046115bb565b61056c565b610102610b47565b610102610b72565b610102610ba3565b610102610ba9565b610155610baf565b610102610c8d565b60025490565b630a85bd0160e11b95945050505050565b6060600080546101e0906118e1565b80601f016020809104026020016040519081016040528092919081815260200182805461020c906118e1565b80156102595780601f1061022e57610100808354040283529160200191610259565b820191906000526020600020905b81548152906001019060200180831161023c57829003601f168201915b5050505050905090565b600061026d610433565b905060055481111561028157610281610320565b610289610baf565b50565b600a546016546040516370a0823160e01b8152600092916001600160a01b0316906370a08231906102c19030906004016115eb565b60206040518083038186803b1580156102d957600080fd5b505afa1580156102ed573d6000803e3d6000fd5b505050506040513d601f19601f8201168201806040525081019061031191906115d3565b61031b91906118ca565b905090565b336000908152600b60205260409020546103555760405162461bcd60e51b815260040161034c906116c5565b60405180910390fd5b600061035f610433565b905060055481116103825760405162461bcd60e51b815260040161034c90611780565b61038a610c93565b600061039461046d565b336000818152600b60205260409081902043600190910155601654905163a9059cbb60e01b81529293506001600160a01b03169163a9059cbb916103dc918590600401611623565b602060405180830381600087803b1580156103f657600080fd5b505af115801561040a573d6000803e3d6000fd5b505050506040513d601f19601f8201168201806040525081019061042e9190611594565b505050565b336000908152600b602052604081205481901561031b57336000908152600b602052604090206001015461046790436118ca565b92915050565b336000908152600b60205260408120546104995760405162461bcd60e51b815260040161034c906116c5565b60006104a361028c565b90506000806104b0610433565b90508015610565576007546006548210156104e2576006546007546104d590846118ab565b6104df919061188b565b90505b600754600a54336000908152600b6020526040902054101561052b57600a54600754336000908152600b602052604090205461051e91906118ab565b610528919061188b565b90505b60075460009061053b83856118ab565b610545919061188b565b60075490915061055587836118ab565b61055f919061188b565b94505050505b5091505090565b606481101561058d5760405162461bcd60e51b815260040161034c906116fc565b6016546040516323b872dd60e01b81526001600160a01b03909116906323b872dd906105c1903390309086906004016115ff565b602060405180830381600087803b1580156105db57600080fd5b505af11580156105ef573d6000803e3d6000fd5b505050506040513d601f19601f820116820180604052508101906106139190611594565b50600060646002548361062691906118ab565b610630919061188b565b9050600061063e82846118ca565b336000908152600b6020526040812080549293508392909190610662908490611873565b9091555050336000908152600b6020526040812043600190910155600a805483929061068f908490611873565b925050819055506000601b8054806020026020016040519081016040528092919081815260200182805480156106ee57602002820191906000526020600020905b81546001600160a01b031681526001909101906020018083116106d0575b505060165460105460405163095ea7b360e01b81529596506001600160a01b039182169563095ea7b3955061072c9450911691508790600401611623565b602060405180830381600087803b15801561074657600080fd5b505af115801561075a573d6000803e3d6000fd5b505050506040513d601f19601f8201168201806040525081019061077e9190611594565b506017546001546001600160a01b03909116906338ed1739908590600090859030906107aa9042611873565b6040518663ffffffff1660e01b81526004016107ca959493929190611803565b600060405180830381600087803b1580156107e457600080fd5b505af11580156107f8573d6000803e3d6000fd5b505050506040513d6000823e601f3d908101601f1916820160405261082091908101906114da565b506015546040516370a0823160e01b81526000916001600160a01b0316906370a08231906108529030906004016115eb565b60206040518083038186803b15801561086a57600080fd5b505afa15801561087e573d6000803e3d6000fd5b505050506040513d601f19601f820116820180604052508101906108a291906115d3565b90508015610b385760155460125460405163095ea7b360e01b81526001600160a01b039283169263095ea7b3926108e0929116908590600401611623565b602060405180830381600087803b1580156108fa57600080fd5b505af115801561090e573d6000803e3d6000fd5b505050506040513d601f19601f820116820180604052508101906109329190611594565b50601e5460ff1615610acc5760195460135460405163282d3fdf60e01b81526001600160a01b039283169263282d3fdf92610974929116908590600401611623565b600060405180830381600087803b15801561098e57600080fd5b505af11580156109a2573d6000803e3d6000fd5b5050601a546040516370a0823160e01b815260009350600192506001600160a01b03909116906370a08231906109dc9030906004016115eb565b60206040518083038186803b1580156109f457600080fd5b505afa158015610a08573d6000803e3d6000fd5b505050506040513d601f19601f82011682018060405250810190610a2c91906115d3565b610a3691906118ca565b601a54604051632f745c5960e01b81529192506001600160a01b031690632f745c5990610a699030908590600401611623565b60206040518083038186803b158015610a8157600080fd5b505afa158015610a95573d6000803e3d6000fd5b505050506040513d601f19601f82011682018060405250810190610ab991906115d3565b601f5550601e805460ff19169055610b38565b601954601354601f54604051630bd2f00560e01b81526001600160a01b0393841693630bd2f00593610b0593911691869060040161163c565b600060405180830381600087803b158015610b1f57600080fd5b505af1158015610b33573d6000803e3d6000fd5b505050505b610b40610c93565b5050505050565b336000908152600b602090815260409182902082518084019093528054835260010154910181905290565b336000908152600b602090815260409182902082518084019093528054808452600190910154929091019190915290565b60055490565b60065490565b336000908152600b602052604090205480610bdc5760405162461bcd60e51b815260040161034c9061173e565b336000818152600b602052604080822091909155601654905163a9059cbb60e01b81526001600160a01b039091169163a9059cbb91610c2091908590600401611623565b602060405180830381600087803b158015610c3a57600080fd5b505af1158015610c4e573d6000803e3d6000fd5b505050506040513d601f19601f82011682018060405250810190610c729190611594565b5080600a6000828254610c8591906118ca565b909155505050565b600a5490565b600060095443610ca391906118ca565b9050600854811115610289576000601d805480602002602001604051908101604052809291908181526020018280548015610d0757602002820191906000526020600020905b81546001600160a01b03168152600190910190602001808311610ce9575b5050601954601354601f546040516305d38c7160e21b81529697506001600160a01b039283169663174e31c49650610d489550919092169250600401611623565b600060405180830381600087803b158015610d6257600080fd5b505af1158015610d76573d6000803e3d6000fd5b50506015546040516370a0823160e01b8152600093506001600160a01b0390911691506370a0823190610dad9030906004016115eb565b60206040518083038186803b158015610dc557600080fd5b505afa158015610dd9573d6000803e3d6000fd5b505050506040513d601f19601f82011682018060405250810190610dfd91906115d3565b90506000606460035483610e1191906118ab565b610e1b919061188b565b90506000606460045484610e2f91906118ab565b610e39919061188b565b90508115610e4a57610e4a82611104565b8015610f455760155460125460405163095ea7b360e01b81526001600160a01b039283169263095ea7b392610e86929116908590600401611623565b602060405180830381600087803b158015610ea057600080fd5b505af1158015610eb4573d6000803e3d6000fd5b505050506040513d601f19601f82011682018060405250810190610ed89190611594565b50601954601354601f54604051630bd2f00560e01b81526001600160a01b0393841693630bd2f00593610f1293911691869060040161163c565b600060405180830381600087803b158015610f2c57600080fd5b505af1158015610f40573d6000803e3d6000fd5b505050505b6015546040516370a0823160e01b81526001600160a01b03909116906370a0823190610f759030906004016115eb565b60206040518083038186803b158015610f8d57600080fd5b505afa158015610fa1573d6000803e3d6000fd5b505050506040513d601f19601f82011682018060405250810190610fc591906115d3565b925082156110f95760155460105460405163095ea7b360e01b81526001600160a01b039283169263095ea7b392611003929116908790600401611623565b602060405180830381600087803b15801561101d57600080fd5b505af1158015611031573d6000803e3d6000fd5b505050506040513d601f19601f820116820180604052508101906110559190611594565b506017546001546001600160a01b03909116906338ed1739908590600090889030906110819042611873565b6040518663ffffffff1660e01b81526004016110a1959493929190611803565b600060405180830381600087803b1580156110bb57600080fd5b505af11580156110cf573d6000803e3d6000fd5b505050506040513d6000823e601f3d908101601f191682016040526110f791908101906114da565b505b505043600955505050565b600081116111245760405162461bcd60e51b815260040161034c906117c3565b6000601c80548060200260200160405190810160405280929190818152602001828054801561117c57602002820191906000526020600020905b81546001600160a01b0316815260019091019060200180831161115e575b505060155460105460405163095ea7b360e01b81529596506001600160a01b039182169563095ea7b395506111ba9450911691508690600401611623565b602060405180830381600087803b1580156111d457600080fd5b505af11580156111e8573d6000803e3d6000fd5b505050506040513d601f19601f8201168201806040525081019061120c9190611594565b506017546001546001600160a01b03909116906338ed1739908490600090859030906112389042611873565b6040518663ffffffff1660e01b8152600401611258959493929190611803565b600060405180830381600087803b15801561127257600080fd5b505af1158015611286573d6000803e3d6000fd5b505050506040513d6000823e601f3d908101601f191682016040526112ae91908101906114da565b506014546040516370a0823160e01b81526000916001600160a01b0316906370a08231906112e09030906004016115eb565b60206040518083038186803b1580156112f857600080fd5b505afa15801561130c573d6000803e3d6000fd5b505050506040513d601f19601f8201168201806040525081019061133091906115d3565b9050801561042e5760145460115460405163095ea7b360e01b81526001600160a01b039283169263095ea7b39261136e929116908590600401611623565b602060405180830381600087803b15801561138857600080fd5b505af115801561139c573d6000803e3d6000fd5b505050506040513d601f19601f820116820180604052508101906113c09190611594565b5060185460405163f14faf6f60e01b81526001600160a01b039091169063f14faf6f906113f19084906004016117fa565b600060405180830381600087803b15801561140b57600080fd5b505af115801561141f573d6000803e3d6000fd5b50505050505050565b80356001600160a01b038116811461143f57600080fd5b919050565b60008060008060006080868803121561145b578081fd5b61146486611428565b945061147260208701611428565b935060408601359250606086013567ffffffffffffffff80821115611495578283fd5b818801915088601f8301126114a8578283fd5b8135818111156114b6578384fd5b8960208285010111156114c7578384fd5b9699959850939650602001949392505050565b600060208083850312156114ec578182fd5b825167ffffffffffffffff80821115611503578384fd5b818501915085601f830112611516578384fd5b81518181111561152857611528611932565b8381026040518582820101818110858211171561154757611547611932565b604052828152858101935084860182860187018a1015611565578788fd5b8795505b83861015611587578051855260019590950194938601938601611569565b5098975050505050505050565b6000602082840312156115a5578081fd5b815180151581146115b4578182fd5b9392505050565b6000602082840312156115cc578081fd5b5035919050565b6000602082840312156115e4578081fd5b5051919050565b6001600160a01b0391909116815260200190565b6001600160a01b039384168152919092166020820152604081019190915260600190565b6001600160a01b03929092168252602082015260400190565b6001600160a01b039390931683526020830191909152604082015260600190565b6001600160e01b031991909116815260200190565b6000602080835283518082850152825b8181101561169e57858101830151858201604001528201611682565b818111156116af5783604083870101525b50601f01601f1916929092016040019392505050565b6020808252601b908201527f47696e6b6f3a207374616b696e67206465706f73697420697320300000000000604082015260600190565b60208082526022908201527f47696e6b6f3a206d696e696d756d206465706f73697420616d6f756e743a2031604082015261030360f41b606082015260800190565b60208082526022908201527f47696e6b6f3a20776974686472617720616d6f756e742063616e6e6f74206265604082015261020360f41b606082015260800190565b60208082526023908201527f47696e6b6f3a206861727665737420636f6f6c646f776e20696e2070726f677260408201526265737360e81b606082015260800190565b6020808252601f908201527f47696e6b6f3a2057696e677320616d6f756e742063616e6e6f74206265203000604082015260600190565b90815260200190565b600060a082018783526020878185015260a0604085015281875180845260c0860191508289019350845b818110156118525784516001600160a01b03168352938301939183019160010161182d565b50506001600160a01b03969096166060850152505050608001529392505050565b600082198211156118865761188661191c565b500190565b6000826118a657634e487b7160e01b81526012600452602481fd5b500490565b60008160001904831182151516156118c5576118c561191c565b500290565b6000828210156118dc576118dc61191c565b500390565b6002810460018216806118f557607f821691505b6020821081141561191657634e487b7160e01b600052602260045260246000fd5b50919050565b634e487b7160e01b600052601160045260246000fd5b634e487b7160e01b600052604160045260246000fdfea2646970667358221220ee69155c903d8ebf6be26964d75809e9afcc0d2ef6dbcd34760ad96ca7ceb1a464736f6c63430008000033",
  "immutableReferences": {},
  "source": "//SPDX-License-Identifier: GPL-3.0+\n\npragma solidity 0.8.0;\n\nimport \"@openzeppelin/contracts/token/ERC721/IERC721Receiver.sol\";\n\ncontract GoToken\n{\n    function approve(address, uint256) external returns (bool) {}\n    function balanceOf(address) external view returns (uint256) {}\n}\n\ncontract WingsToken\n{\n    function approve(address, uint256) external returns (bool) {}\n    function balanceOf(address) external view returns (uint256) {}\n}\n\ncontract EthereumToken\n{\n    function approve(address, uint256) external returns (bool) {}\n    function balanceOf(address) external view returns (uint256) {}\n    function transfer(address, uint256) external returns (bool) {}\n    function transferFrom(address, address, uint256) external returns (bool) {}\n}\n\ncontract PearlNote\n{\n\tfunction balanceOf(address) external view returns (uint256) {}\n\tfunction tokenOfOwnerByIndex(address, uint256) external view returns (uint256) {}\n}\n\ncontract JetSwapRouter\n{\n    function swapExactTokensForTokens(\n                 uint,\n                 uint,\n                 address[] calldata,\n                 address,\n                 uint\n             ) external virtual returns (uint[] memory) {}\n}\n\ncontract GoFarm\n{\n    function donate(uint256) external {}\n}\n\ncontract MasterChef\n{\n    function lock(address noteAddr, uint256 amount) public {}\n    function claimReward(address noteAddr, uint256 tokenId) public {}\n    function extendLock(address noteAddr, uint256 tokenId, uint256 amount) public {}\n}\n\ncontract Ginko is IERC721Receiver\n{\n    struct UserData \n    { \n        uint256 stakingDeposit;\n        uint256 stakingBlock;\n    }\n    \n    string  private _name = \"\\x47\\x69\\x6e\\x6b\\xc5\\x8d\";\n    uint256 private _swapWaitingBlocks = 3600;\n    uint256 private _depositFee = 10; //Deposit fee: 10%\n    uint256 private _performanceFee = 1; //Performance fee: 1%\n    uint256 private _autoCompoundFee = 33; //Auto-compound fee: 33%\n    uint256 private _harvestCooldownBlocks = 28800;\n    uint256 private _stakingBlockRange = 864000;\n    uint256 private _decimalFixMultiplier = 1000000000000000000;\n    uint256 private _updateCooldownBlocks = 1200;\n\n    uint256 private _lastUpdate;\n    uint256 private _totalStakingDeposits;\n    \n    mapping(address => UserData) private _userData;\n    \n    address private _goTokenAddress = 0x98D23ADA1Da268Bc10E2e0d1585C47971C4B89DD;\n    address private _wingsTokenAddress = 0x52A7F40BB6e9BD9183071cdBdd3A977D713F2e34; //PEARL\n    address private _ethereumTokenAddress = 0xa3Fa99A148fA48D14Ed51d610c367C61876997F1; //MAI\n    address private _maticTokenAddress = 0x0d500B1d8E8eF31E21C99d1Db9A6444d3ADf1270;\n    address private _jetSwapRouterAddress = 0xa5E0829CaCEd8fFDD4De3c43696c57F7D7A678ff; //QuickSwap\n    address private _goFarmAddress = 0x05C1EC18455dB5edcf1389B8fC215d56B42A15C0;\n    address private _masterChefAddress = 0xc67aBdA25D0421FE9Dc1afd64183b179A426a256; //OtterLake\n    address private _pearlNoteAddress = 0x931f0857130bcd221D30C06d80aD98affe3Aa526;    \n        \n    GoToken       private _goToken;\n    WingsToken    private _wingsToken;\n    EthereumToken private _ethereumToken;\n    JetSwapRouter private _jetSwapRouter;\n    GoFarm        private _goFarm;\n    MasterChef    private _masterChef;\n    PearlNote     private _pearlNote;\n    \n    address[] private _ethereumWingsPair;\n    address[] private _wingsGoPair;\n    address[] private _wingsEthereumPair;\n    \n    bool private _isFirstDeposit = true;\n\n    uint256 private _tokenId;\n   \n    constructor()\n    {\n        //Initialize contracts\n        _goToken = GoToken(_goTokenAddress);\n        _wingsToken = WingsToken(_wingsTokenAddress);\n        _ethereumToken = EthereumToken(_ethereumTokenAddress);\n        _jetSwapRouter = JetSwapRouter(_jetSwapRouterAddress);\n        _goFarm = GoFarm(_goFarmAddress);\n        _masterChef = MasterChef(_masterChefAddress);\n        _pearlNote = PearlNote(_pearlNoteAddress);\n        \n        //Initialize trading pairs\n        _ethereumWingsPair = [_ethereumTokenAddress, _maticTokenAddress, _wingsTokenAddress];\n        _wingsGoPair       = [_wingsTokenAddress, _maticTokenAddress, _goTokenAddress];\n        _wingsEthereumPair = [_wingsTokenAddress, _maticTokenAddress, _ethereumTokenAddress];\n    }\n    \n    function getName() external view returns (string memory)\n    {\n        return _name;\n    }\n    \n    function getRewardsFund() public view returns (uint256)\n    {\n        return _ethereumToken.balanceOf(address(this)) - _totalStakingDeposits;\n    }\n    \n    function getTotalStakingDeposits() external view returns (uint256)\n    {\n        return _totalStakingDeposits;\n    }\n    \n    function getDepositFee() external view returns (uint256)\n    {\n        return _depositFee;\n    }\n    \n    function getHarvestCooldownBlocks() external view returns (uint256)\n    {\n        return _harvestCooldownBlocks;\n    }\n    \n    function getStakingBlockRange() external view returns (uint256)\n    {\n        return _stakingBlockRange;\n    } \n    \n    function buyGoToken(uint256 wingsAmount) private\n    {\n        require(wingsAmount > 0, \"Ginko: Wings amount cannot be 0\");\n    \n        address[] memory wingsGoPairMemory = _wingsGoPair;\n        \n        //Swap Wings for Gō\n        _wingsToken.approve(_jetSwapRouterAddress, wingsAmount);\n        _jetSwapRouter.swapExactTokensForTokens(wingsAmount, 0, wingsGoPairMemory, address(this), block.timestamp + _swapWaitingBlocks);\n        \n        //Donate to Gō farm\n        uint256 goAmount = _goToken.balanceOf(address(this));\n        \n        if (goAmount > 0)\n        {\n            _goToken.approve(_goFarmAddress, goAmount);\n            _goFarm.donate(goAmount);\n        }\n    }\n    \n    function updateRewardsFund() private\n    {\n        uint256 elapsedBlocks = block.number - _lastUpdate;\n    \n        if (elapsedBlocks > _updateCooldownBlocks)\n        {\n            address[] memory wingsEthereumPairMemory = _wingsEthereumPair;\n                \n            //Harvest pending Wings\n            _masterChef.claimReward(_pearlNoteAddress, _tokenId);\n            \n            uint256 wingsAmount = _wingsToken.balanceOf(address(this));\n            \n            uint256 performanceFeeAmount = wingsAmount * _performanceFee / 100;\n            uint256 autoCompoundFeeAmount = wingsAmount * _autoCompoundFee / 100;\n            \n            //Buy Gō and donate it to Gō farm\n            if (performanceFeeAmount > 0)\n                buyGoToken(performanceFeeAmount);\n                \n            //Auto-compound\n            if (autoCompoundFeeAmount > 0)\n            {\n                _wingsToken.approve(_masterChefAddress, autoCompoundFeeAmount);\n                _masterChef.extendLock(_pearlNoteAddress, _tokenId, autoCompoundFeeAmount);\n            }\n            \n            //Swap Wings for Ethereum\n            wingsAmount = _wingsToken.balanceOf(address(this));\n            \n            if (wingsAmount > 0)\n            {\n                _wingsToken.approve(_jetSwapRouterAddress, wingsAmount);\n                _jetSwapRouter.swapExactTokensForTokens(wingsAmount, 0, wingsEthereumPairMemory, address(this), block.timestamp + _swapWaitingBlocks);\n            }\n            \n            _lastUpdate = block.number;\n        }\n    }\n    \n    function deposit(uint256 amount) external \n    {\n        require(amount >= 100, \"Ginko: minimum deposit amount: 100\");\n        \n        _ethereumToken.transferFrom(msg.sender, address(this), amount);\n        \n        uint256 fee = amount * _depositFee / 100;\n        uint256 netAmount = amount - fee;\n        \n        //Update Vault data\n        _userData[msg.sender].stakingDeposit += netAmount;\n        _userData[msg.sender].stakingBlock = block.number;\n        \n        _totalStakingDeposits += netAmount;\n        \n        //Swap deposit fee for Wings\n        address[] memory ethereumWingsPairMemory = _ethereumWingsPair;\n        \n        _ethereumToken.approve(_jetSwapRouterAddress, fee);\n        _jetSwapRouter.swapExactTokensForTokens(fee, 0, ethereumWingsPairMemory, address(this), block.timestamp + _swapWaitingBlocks);\n        \n        //Deposit Wings on JetSwap Pool\n        uint256 wingsAmount = _wingsToken.balanceOf(address(this));\n            \n        if (wingsAmount > 0)\n        {\n            _wingsToken.approve(_masterChefAddress, wingsAmount);\n            \n            if (_isFirstDeposit)\n            {\n            \t//Create note\n            \t_masterChef.lock(_pearlNoteAddress, wingsAmount);\n            \t            \t\n            \t//Get token id\n            \tuint256 index = _pearlNote.balanceOf(address(this)) - 1;\n            \t_tokenId = _pearlNote.tokenOfOwnerByIndex(address(this), index);\n            \t\n            \t_isFirstDeposit = false;\n            }\n\t\t\telse            \t\n            \t_masterChef.extendLock(_pearlNoteAddress, _tokenId, wingsAmount);\n        }\n        \n        //Update rewards fund\n        updateRewardsFund();\n    }\n\n    function withdraw() external\n    {\n        uint256 blocksStaking = computeBlocksStaking();\n\n        if (blocksStaking > _harvestCooldownBlocks)\n            harvest();\n        \n        emergencyWithdraw();\n    }\n    \n    function emergencyWithdraw() public\n    {\n        uint256 stakingDeposit = _userData[msg.sender].stakingDeposit;\n        \n        require(stakingDeposit > 0, \"Ginko: withdraw amount cannot be 0\");\n        \n        _userData[msg.sender].stakingDeposit = 0;\n \n        _ethereumToken.transfer(msg.sender, stakingDeposit);\n        \n        _totalStakingDeposits -= stakingDeposit;\n    }\n\n    function computeUserReward() public view returns (uint256)\n    {\n        require(_userData[msg.sender].stakingDeposit > 0, \"Ginko: staking deposit is 0\");\n    \n        uint256 rewardsFund = getRewardsFund();\n        \n        uint256 userReward = 0;\n    \n        uint256 blocksStaking = computeBlocksStaking();\n        \n        if (blocksStaking > 0)\n\t    {\n\t        uint256 userBlockRatio = _decimalFixMultiplier;\n\t    \n\t        if (blocksStaking < _stakingBlockRange)\n\t            userBlockRatio = blocksStaking * _decimalFixMultiplier / _stakingBlockRange; \n\t\t    \n\t\t    uint256 userDepositRatio = _decimalFixMultiplier;\n\t\t    \n\t\t    if (_userData[msg.sender].stakingDeposit < _totalStakingDeposits)\n\t\t        userDepositRatio = _userData[msg.sender].stakingDeposit * _decimalFixMultiplier / _totalStakingDeposits;\n\t\t    \n\t\t    uint256 totalRatio = userBlockRatio * userDepositRatio / _decimalFixMultiplier;\n\t\t    \n\t\t    userReward = totalRatio * rewardsFund / _decimalFixMultiplier;\n\t\t}\n\t\t\n\t\treturn userReward;\n    }\n\n    function harvest() public \n    {\n        require(_userData[msg.sender].stakingDeposit > 0, \"Ginko: staking deposit is 0\");\n\n        uint256 blocksStaking = computeBlocksStaking();\n\n        require(blocksStaking > _harvestCooldownBlocks, \"Ginko: harvest cooldown in progress\");\n    \n        updateRewardsFund();\n        \n        uint256 userReward = computeUserReward();\n        \n        _userData[msg.sender].stakingBlock = block.number;\n\n        _ethereumToken.transfer(msg.sender, userReward);\n    }\n    \n    function getStakingDeposit() external view returns (uint256)\n    {\n        UserData memory userData = _userData[msg.sender];\n    \n        return (userData.stakingDeposit);\n    }\n    \n    function getStakingBlock() external view returns (uint256)\n    {\n        UserData memory userData = _userData[msg.sender];\n    \n        return (userData.stakingBlock);\n    }\n    \n    function computeBlocksStaking() public view returns (uint256)\n    {\n        uint256 blocksStaking = 0;\n        \n        if (_userData[msg.sender].stakingDeposit > 0)\n            blocksStaking = block.number - _userData[msg.sender].stakingBlock;\n        \n        return blocksStaking;\n    }\n\n\tfunction onERC721Received(address, address, uint256, bytes calldata) external override pure returns(bytes4) \n\t{\n\t\treturn this.onERC721Received.selector;\n\t}  \n}\n\n",
  "sourcePath": "/home/dummy/shared/Ginko/contracts/Ginko.sol",
  "compiler": {
    "name": "solc",
    "version": "0.8.0+commit.c7dfd78e.Emscripten.clang"
  },
  "schemaVersion": "3.4.4",
  "updatedAt": "2022-01-13T12:39:51.222Z",
  "networkType": "ethereum",
  "devdoc": {
    "kind": "dev",
    "methods": {},
    "version": 1
  },
  "userdoc": {
    "kind": "user",
    "methods": {},
    "version": 1
  }
}