{
  "contractName": "GoFarm",
  "abi": [
    {
      "inputs": [
        {
          "internalType": "contract GoToken",
          "name": "goToken",
          "type": "address"
        }
      ],
      "payable": false,
      "stateMutability": "nonpayable",
      "type": "constructor"
    },
    {
      "constant": true,
      "inputs": [],
      "name": "getName",
      "outputs": [
        {
          "internalType": "string",
          "name": "",
          "type": "string"
        }
      ],
      "payable": false,
      "stateMutability": "view",
      "type": "function"
    },
    {
      "constant": true,
      "inputs": [],
      "name": "getFarmTreasury",
      "outputs": [
        {
          "internalType": "uint256",
          "name": "",
          "type": "uint256"
        }
      ],
      "payable": false,
      "stateMutability": "view",
      "type": "function"
    },
    {
      "constant": true,
      "inputs": [],
      "name": "getRewardsFund",
      "outputs": [
        {
          "internalType": "uint256",
          "name": "",
          "type": "uint256"
        }
      ],
      "payable": false,
      "stateMutability": "view",
      "type": "function"
    },
    {
      "constant": true,
      "inputs": [],
      "name": "getTotalGoStaked",
      "outputs": [
        {
          "internalType": "uint256",
          "name": "",
          "type": "uint256"
        }
      ],
      "payable": false,
      "stateMutability": "view",
      "type": "function"
    },
    {
      "constant": true,
      "inputs": [],
      "name": "getDepositFee",
      "outputs": [
        {
          "internalType": "uint256",
          "name": "",
          "type": "uint256"
        }
      ],
      "payable": false,
      "stateMutability": "view",
      "type": "function"
    },
    {
      "constant": true,
      "inputs": [],
      "name": "getHarvestCooldownBlocks",
      "outputs": [
        {
          "internalType": "uint256",
          "name": "",
          "type": "uint256"
        }
      ],
      "payable": false,
      "stateMutability": "view",
      "type": "function"
    },
    {
      "constant": true,
      "inputs": [],
      "name": "getStakingBlockRange",
      "outputs": [
        {
          "internalType": "uint256",
          "name": "",
          "type": "uint256"
        }
      ],
      "payable": false,
      "stateMutability": "view",
      "type": "function"
    },
    {
      "constant": false,
      "inputs": [],
      "name": "updateRewardsFund",
      "outputs": [],
      "payable": false,
      "stateMutability": "nonpayable",
      "type": "function"
    },
    {
      "constant": false,
      "inputs": [
        {
          "internalType": "uint256",
          "name": "amount",
          "type": "uint256"
        }
      ],
      "name": "donate",
      "outputs": [],
      "payable": false,
      "stateMutability": "nonpayable",
      "type": "function"
    },
    {
      "constant": false,
      "inputs": [
        {
          "internalType": "uint256",
          "name": "amount",
          "type": "uint256"
        }
      ],
      "name": "deposit",
      "outputs": [],
      "payable": false,
      "stateMutability": "nonpayable",
      "type": "function"
    },
    {
      "constant": false,
      "inputs": [],
      "name": "withdraw",
      "outputs": [],
      "payable": false,
      "stateMutability": "nonpayable",
      "type": "function"
    },
    {
      "constant": true,
      "inputs": [],
      "name": "computeUserReward",
      "outputs": [
        {
          "internalType": "uint256",
          "name": "",
          "type": "uint256"
        }
      ],
      "payable": false,
      "stateMutability": "view",
      "type": "function"
    },
    {
      "constant": false,
      "inputs": [],
      "name": "harvest",
      "outputs": [],
      "payable": false,
      "stateMutability": "nonpayable",
      "type": "function"
    },
    {
      "constant": false,
      "inputs": [],
      "name": "startFarm",
      "outputs": [],
      "payable": false,
      "stateMutability": "nonpayable",
      "type": "function"
    },
    {
      "constant": true,
      "inputs": [],
      "name": "getStakingDeposit",
      "outputs": [
        {
          "internalType": "uint256",
          "name": "",
          "type": "uint256"
        }
      ],
      "payable": false,
      "stateMutability": "view",
      "type": "function"
    },
    {
      "constant": true,
      "inputs": [],
      "name": "getStakingBlock",
      "outputs": [
        {
          "internalType": "uint256",
          "name": "",
          "type": "uint256"
        }
      ],
      "payable": false,
      "stateMutability": "view",
      "type": "function"
    },
    {
      "constant": true,
      "inputs": [],
      "name": "computeBlocksStaking",
      "outputs": [
        {
          "internalType": "uint256",
          "name": "",
          "type": "uint256"
        }
      ],
      "payable": false,
      "stateMutability": "view",
      "type": "function"
    }
  ],
  "bytecode": "0x60c0604052600860808190526747c58d204661726d60c01b60a090815261002991600091906100b7565b50651eec3dec2000600655600a60075561708060085562a06680600955670de0b6b3a7640000600a55670de0b6b3a7640000600b5534801561006a57600080fd5b50604051610fc4380380610fc48339818101604052602081101561008d57600080fd5b5051600180546001600160a01b0319166001600160a01b0390921691909117905543600555610152565b828054600181600116156101000203166002900490600052602060002090601f016020900481019282601f106100f857805160ff1916838001178555610125565b82800160010185558215610125579182015b8281111561012557825182559160200191906001019061010a565b50610131929150610135565b5090565b61014f91905b80821115610131576000815560010161013b565b90565b610e63806101616000396000f3fe608060405234801561001057600080fd5b506004361061010b5760003560e01c8063845857ab116100a2578063c1f45a9911610071578063c1f45a991461020e578063d9a9cb6f14610216578063da6ff60c1461021e578063f14faf6f14610226578063fe6374d1146102435761010b565b8063845857ab146101d9578063b6b55f25146101e1578063b841ac33146101fe578063c1b43056146102065761010b565b80634641257d116100de5780634641257d146101b95780634a033c64146101c15780634f31840f146101c95780634fbfd1b6146101d15761010b565b80630de705b51461011057806317d7de7c1461012a5780633ccfd60b146101a757806340737cdd146101b1575b600080fd5b61011861024b565b60408051918252519081900360200190f35b610132610251565b6040805160208082528351818301528351919283929083019185019080838360005b8381101561016c578181015183820152602001610154565b50505050905090810190601f1680156101995780820380516001836020036101000a031916815260200191505b509250505060405180910390f35b6101af6102e7565b005b6101186103fd565b6101af610403565b610118610575565b6101af6105b8565b61011861068b565b6101186107c3565b6101af600480360360208110156101f757600080fd5b50356107c9565b61011861094a565b610118610981565b6101186109be565b6101186109c4565b6101af6109ca565b6101af6004803603602081101561023c57600080fd5b5035610a4a565b610118610b28565b60075490565b60008054604080516020601f60026000196101006001881615020190951694909404938401819004810282018101909252828152606093909290918301828280156102dd5780601f106102b2576101008083540402835291602001916102dd565b820191906000526020600020905b8154815290600101906020018083116102c057829003601f168201915b5050505050905090565b336000908152600c6020526040902054806103335760405162461bcd60e51b8152600401808060200182810382526023815260200180610d856023913960400191505060405180910390fd5b600061033d610575565b905060085481111561035157610351610403565b336000908152600c6020526040812055600454610374908363ffffffff610b2e16565b60049081556001546040805163a9059cbb60e01b8152339381019390935260248301859052516001600160a01b039091169163a9059cbb9160448083019260209291908290030181600087803b1580156103cd57600080fd5b505af11580156103e1573d6000803e3d6000fd5b505050506040513d60208110156103f757600080fd5b50505050565b60035490565b336000908152600c6020526040902054610464576040805162461bcd60e51b815260206004820152601c60248201527f476f4661726d3a207374616b696e67206465706f736974206973203000000000604482015290519081900360640190fd5b600061046e610575565b905060085481116104b05760405162461bcd60e51b8152600401808060200182810382526024815260200180610e0b6024913960400191505060405180910390fd5b6104b86109ca565b60006104c261068b565b6003549091506104d8908263ffffffff610b2e16565b6003556001546040805163a9059cbb60e01b81523360048201526024810184905290516001600160a01b039092169163a9059cbb916044808201926020929091908290030181600087803b15801561052f57600080fd5b505af1158015610543573d6000803e3d6000fd5b505050506040513d602081101561055957600080fd5b5050336000908152600c60205260409020436001909101555050565b336000908152600c60205260408120548190156105b357336000908152600c60205260409020600101546105b090439063ffffffff610b2e16565b90505b905090565b6004541561060d576040805162461bcd60e51b815260206004820152601f60248201527f476f4661726d3a206661726d20697320616c7265616479207374617274656400604482015290519081900360640190fd5b600a5460035410156106505760405162461bcd60e51b8152600401808060200182810382526021815260200180610da86021913960400191505060405180910390fd5b600a546003546106659163ffffffff610b2e16565b600355600a8054336000908152600c602052604090209081554360019091015554600455565b336000908152600c60205260408120546106ec576040805162461bcd60e51b815260206004820152601c60248201527f476f4661726d3a207374616b696e67206465706f736974206973203000000000604482015290519081900360640190fd5b6000806106f7610575565b905080156107bd57600b5460095482101561073657610733600954610727600b5485610b7990919063ffffffff16565b9063ffffffff610bd216565b90505b600b54600454336000908152600c6020526040902054101561078057600454600b54336000908152600c602052604090205461077d9291610727919063ffffffff610b7916565b90505b600b5460009061079a90610727858563ffffffff610b7916565b90506107b7600b5461072760035484610b7990919063ffffffff16565b94505050505b50905090565b60025490565b6000806064831015610822576040805162461bcd60e51b815260206004820152601e60248201527f476f4661726d3a206465706f73697420616d6f756e7420746f6f206c6f770000604482015290519081900360640190fd5b61082a6109ca565b600154604080516323b872dd60e01b81523360048201523060248201526044810186905290516001600160a01b03909216916323b872dd916064808201926020929091908290030181600087803b15801561088457600080fd5b505af1158015610898573d6000803e3d6000fd5b505050506040513d60208110156108ae57600080fd5b50506007546108cb9060649061072790869063ffffffff610b7916565b91506108dd838363ffffffff610b2e16565b6002549091506108f3908363ffffffff610c1416565b600255600454610909908263ffffffff610c1416565b600455336000908152600c602052604090205461092c908263ffffffff610c1416565b336000908152600c6020526040902090815543600190910155505050565b6000610954610d6a565b5050336000908152600c602090815260409182902082518084019093528054835260010154910181905290565b600061098b610d6a565b5050336000908152600c602090815260409182902082518084019093528054808452600190910154929091019190915290565b60085490565b60095490565b600554431115610a485760006109eb60055443610b2e90919063ffffffff16565b90506000610a0460065483610b7990919063ffffffff16565b9050600254811115610a1557506002545b600254610a28908263ffffffff610b2e16565b600255600354610a3e908263ffffffff610c1416565b6003555050436005555b565b60008111610a895760405162461bcd60e51b8152600401808060200182810382526021815260200180610dea6021913960400191505060405180910390fd5b600154604080516323b872dd60e01b81523360048201523060248201526044810184905290516001600160a01b03909216916323b872dd916064808201926020929091908290030181600087803b158015610ae357600080fd5b505af1158015610af7573d6000803e3d6000fd5b505050506040513d6020811015610b0d57600080fd5b5050600354610b22908263ffffffff610c1416565b60035550565b60045490565b6000610b7083836040518060400160405280601e81526020017f536166654d6174683a207375627472616374696f6e206f766572666c6f770000815250610c6e565b90505b92915050565b600082610b8857506000610b73565b82820282848281610b9557fe5b0414610b705760405162461bcd60e51b8152600401808060200182810382526021815260200180610dc96021913960400191505060405180910390fd5b6000610b7083836040518060400160405280601a81526020017f536166654d6174683a206469766973696f6e206279207a65726f000000000000815250610d05565b600082820183811015610b70576040805162461bcd60e51b815260206004820152601b60248201527f536166654d6174683a206164646974696f6e206f766572666c6f770000000000604482015290519081900360640190fd5b60008184841115610cfd5760405162461bcd60e51b81526004018080602001828103825283818151815260200191508051906020019080838360005b83811015610cc2578181015183820152602001610caa565b50505050905090810190601f168015610cef5780820380516001836020036101000a031916815260200191505b509250505060405180910390fd5b505050900390565b60008183610d545760405162461bcd60e51b8152602060048201818152835160248401528351909283926044909101919085019080838360008315610cc2578181015183820152602001610caa565b506000838581610d6057fe5b0495945050505050565b60405180604001604052806000815260200160008152509056fe476f4661726d3a20776974686472617720616d6f756e742063616e6e6f742062652030476f4661726d3a20696e73756666696369656e74207265776172642066756e6473536166654d6174683a206d756c7469706c69636174696f6e206f766572666c6f77476f4661726d3a20646f6e61746520616d6f756e742063616e6e6f742062652030476f4661726d3a206861727665737420636f6f6c646f776e20696e2070726f6772657373a265627a7a723158202625fb660ec23d40cd7ca4313374a338c27dfcdf5bafd2a967a46d55abfe05d964736f6c63430005100032",
  "source": "pragma solidity 0.5.16;\n\nimport \"./GoToken.sol\";\nimport \"./SafeMath.sol\";\n\ncontract GoFarm \n{\n    using SafeMath for uint256;\n\n    struct UserData \n    { \n        uint256 stakingDeposit;\n        uint256 stakingBlock;\n    }\n\n    string  private _name = \"Gō Farm\";\n    GoToken private _goToken;\n    uint256 private _farmTreasury;\n    uint256 private _rewardsFund;\n    uint256 private _totalGoStaked;\n    uint256 private _lastTransferBlock;\n    uint256 private _goTransferPerBlock = 34000000000000; //0.000034 Gō\n    uint256 private _depositFee = 10; //Deposit fee: 10%\n    uint256 private _harvestCooldownBlocks = 28800;\n    uint256 private _stakingBlockRange = 10512000;\n    uint256 private _startFarmReward = 1000000000000000000; //1 Gō\n    uint256 private _decimalFixMultiplier = 1000000000000000000;\n    \n    mapping(address => UserData) private _userData;\n    \n    constructor(GoToken goToken) public \n    {\n        _goToken = goToken;\n        _lastTransferBlock = block.number;\n    }\n    \n    function getName() external view returns (string memory)\n    {\n        return _name;\n    }\n    \n    function getFarmTreasury() external view returns (uint256)\n    {\n        return _farmTreasury;\n    }\n    \n    function getRewardsFund() external view returns (uint256)\n    {\n        return _rewardsFund;\n    }\n    \n    function getTotalGoStaked() external view returns (uint256)\n    {\n        return _totalGoStaked;\n    }\n    \n    function getDepositFee() external view returns (uint256)\n    {\n        return _depositFee;\n    }\n    \n    function getHarvestCooldownBlocks() external view returns (uint256)\n    {\n        return _harvestCooldownBlocks;\n    }\n    \n    function getStakingBlockRange() external view returns (uint256)\n    {\n        return _stakingBlockRange;\n    } \n    \n    function updateRewardsFund() public\n    {\n        if (block.number > _lastTransferBlock)\n        {\n            uint256 numberOfBlocks = block.number.sub(_lastTransferBlock);\n            uint256 amount = numberOfBlocks.mul(_goTransferPerBlock);\n\t\t    \n\t\t    if (amount > _farmTreasury)\n\t\t        amount = _farmTreasury;\n\t\t    \n\t\t    //Update farm data\n\t\t    _farmTreasury = _farmTreasury.sub(amount);\n\t\t    _rewardsFund = _rewardsFund.add(amount);\n\t\t    _lastTransferBlock = block.number;\n        }\n    }\n    \n    function donate(uint256 amount) external\n    {\n        require(amount > 0, \"GoFarm: donate amount cannot be 0\");\n        \n        _goToken.transferFrom(msg.sender, address(this), amount);\n        \n        _rewardsFund = _rewardsFund.add(amount);\n    }\n\n    function deposit(uint256 amount) external \n    {\n        uint256 fee;\n        uint256 netAmount;\n            \n        require(amount >= 100, \"GoFarm: deposit amount too low\");\n        \n        updateRewardsFund();\n        \n        _goToken.transferFrom(msg.sender, address(this), amount);\n        \n        //Compute fee and net amount\n        fee = (amount.mul(_depositFee)).div(100);\n        netAmount = amount.sub(fee);\n        \n        //Update farm data\n        _farmTreasury = _farmTreasury.add(fee);\n        _totalGoStaked = _totalGoStaked.add(netAmount);\n        \n        //Update user data\n        _userData[msg.sender].stakingDeposit = _userData[msg.sender].stakingDeposit.add(netAmount);\n        _userData[msg.sender].stakingBlock = block.number;\n    }\n\n    function withdraw() external\n    {\n        uint256 stakingDeposit = _userData[msg.sender].stakingDeposit;\n        \n        require(stakingDeposit > 0, \"GoFarm: withdraw amount cannot be 0\");\n        \n        uint256 blocksStaking = computeBlocksStaking();\n\n        if (blocksStaking > _harvestCooldownBlocks)\n            harvest();\n        \n        _userData[msg.sender].stakingDeposit = 0;\n        _totalGoStaked = _totalGoStaked.sub(stakingDeposit);\n        _goToken.transfer(msg.sender, stakingDeposit);\n    }\n\n    function computeUserReward() public view returns (uint256)\n    {\n        require(_userData[msg.sender].stakingDeposit > 0, \"GoFarm: staking deposit is 0\");\n    \n        uint256 userReward = 0;\n    \n        uint256 blocksStaking = computeBlocksStaking();\n        \n        if (blocksStaking > 0)\n\t    {\n\t        uint256 userBlockRatio = _decimalFixMultiplier;\n\t    \n\t        if (blocksStaking < _stakingBlockRange)\n\t            userBlockRatio = blocksStaking.mul(_decimalFixMultiplier).div(_stakingBlockRange); \n\t\t    \n\t\t    uint256 userDepositRatio = _decimalFixMultiplier;\n\t\t    \n\t\t    if (_userData[msg.sender].stakingDeposit < _totalGoStaked)\n\t\t        userDepositRatio = _userData[msg.sender].stakingDeposit.mul(_decimalFixMultiplier).div(_totalGoStaked);\n\t\t    \n\t\t    uint256 totalRatio = userBlockRatio.mul(userDepositRatio).div(_decimalFixMultiplier);\n\t\t    \n\t\t    userReward = totalRatio.mul(_rewardsFund).div(_decimalFixMultiplier);\n\t\t}\n\t\t\n\t\treturn userReward;\n    }\n\n    function harvest() public \n    {\n        require(_userData[msg.sender].stakingDeposit > 0, \"GoFarm: staking deposit is 0\");\n\n        uint256 blocksStaking = computeBlocksStaking();\n\n        require(blocksStaking > _harvestCooldownBlocks, \"GoFarm: harvest cooldown in progress\");\n    \n        updateRewardsFund();\n    \n    \tuint256 userReward = computeUserReward();\n\t\t\t\t\n        _rewardsFund = _rewardsFund.sub(userReward);\n        \n        _goToken.transfer(msg.sender, userReward);\n        \n        _userData[msg.sender].stakingBlock = block.number;\n    }\n    \n    function startFarm() external\n    {\n        require(_totalGoStaked == 0, \"GoFarm: farm is already started\");\n        require(_rewardsFund >= _startFarmReward, \"GoFarm: insufficient reward funds\");\n    \n        _rewardsFund = _rewardsFund.sub(_startFarmReward);\n        \n        _userData[msg.sender].stakingDeposit = _startFarmReward; \n        _userData[msg.sender].stakingBlock = block.number;\n        \n        _totalGoStaked = _startFarmReward;\n    }\n    \n    function getStakingDeposit() external view returns (uint256)\n    {\n        UserData memory userData = _userData[msg.sender];\n    \n        return (userData.stakingDeposit);\n    }\n    \n    function getStakingBlock() external view returns (uint256)\n    {\n        UserData memory userData = _userData[msg.sender];\n    \n        return (userData.stakingBlock);\n    }\n    \n    function computeBlocksStaking() public view returns (uint256)\n    {\n        uint256 blocksStaking = 0;\n        \n        if (_userData[msg.sender].stakingDeposit > 0)\n            blocksStaking = block.number.sub(_userData[msg.sender].stakingBlock);\n        \n        return blocksStaking;\n    }\n}\n",
  "sourcePath": "/home/kenshiro/pGo.Finance/contracts/GoFarm.sol",
  "compiler": {
    "name": "solc",
    "version": "0.5.16+commit.9c3226ce.Emscripten.clang"
  },
  "schemaVersion": "3.4.0",
  "updatedAt": "2021-08-30T14:37:03.623Z",
  "networkType": "ethereum",
  "devdoc": {
    "methods": {}
  },
  "userdoc": {
    "methods": {}
  }
}