{
  "contractName": "MaticPool",
  "abi": [
    {
      "inputs": [],
      "stateMutability": "nonpayable",
      "type": "constructor"
    },
    {
      "inputs": [],
      "name": "getName",
      "outputs": [
        {
          "internalType": "string",
          "name": "",
          "type": "string"
        }
      ],
      "stateMutability": "view",
      "type": "function",
      "constant": true
    },
    {
      "inputs": [],
      "name": "getRewardsFund",
      "outputs": [
        {
          "internalType": "uint256",
          "name": "",
          "type": "uint256"
        }
      ],
      "stateMutability": "view",
      "type": "function",
      "constant": true
    },
    {
      "inputs": [],
      "name": "getTotalStakingDeposits",
      "outputs": [
        {
          "internalType": "uint256",
          "name": "",
          "type": "uint256"
        }
      ],
      "stateMutability": "view",
      "type": "function",
      "constant": true
    },
    {
      "inputs": [],
      "name": "getDepositFee",
      "outputs": [
        {
          "internalType": "uint256",
          "name": "",
          "type": "uint256"
        }
      ],
      "stateMutability": "view",
      "type": "function",
      "constant": true
    },
    {
      "inputs": [],
      "name": "getHarvestCooldownBlocks",
      "outputs": [
        {
          "internalType": "uint256",
          "name": "",
          "type": "uint256"
        }
      ],
      "stateMutability": "view",
      "type": "function",
      "constant": true
    },
    {
      "inputs": [],
      "name": "getStakingBlockRange",
      "outputs": [
        {
          "internalType": "uint256",
          "name": "",
          "type": "uint256"
        }
      ],
      "stateMutability": "view",
      "type": "function",
      "constant": true
    },
    {
      "inputs": [
        {
          "internalType": "uint256",
          "name": "amount",
          "type": "uint256"
        }
      ],
      "name": "deposit",
      "outputs": [],
      "stateMutability": "nonpayable",
      "type": "function"
    },
    {
      "inputs": [],
      "name": "withdraw",
      "outputs": [],
      "stateMutability": "nonpayable",
      "type": "function"
    },
    {
      "inputs": [],
      "name": "emergencyWithdraw",
      "outputs": [],
      "stateMutability": "nonpayable",
      "type": "function"
    },
    {
      "inputs": [],
      "name": "computeUserReward",
      "outputs": [
        {
          "internalType": "uint256",
          "name": "",
          "type": "uint256"
        }
      ],
      "stateMutability": "view",
      "type": "function",
      "constant": true
    },
    {
      "inputs": [],
      "name": "harvest",
      "outputs": [],
      "stateMutability": "nonpayable",
      "type": "function"
    },
    {
      "inputs": [],
      "name": "getStakingDeposit",
      "outputs": [
        {
          "internalType": "uint256",
          "name": "",
          "type": "uint256"
        }
      ],
      "stateMutability": "view",
      "type": "function",
      "constant": true
    },
    {
      "inputs": [],
      "name": "getStakingBlock",
      "outputs": [
        {
          "internalType": "uint256",
          "name": "",
          "type": "uint256"
        }
      ],
      "stateMutability": "view",
      "type": "function",
      "constant": true
    },
    {
      "inputs": [],
      "name": "computeBlocksStaking",
      "outputs": [
        {
          "internalType": "uint256",
          "name": "",
          "type": "uint256"
        }
      ],
      "stateMutability": "view",
      "type": "function",
      "constant": true
    }
  ],
  "bytecode": "0x60c0604052600a60808190526913585d1a58c8141bdbdb60b21b60a09081526200002d9160009190620001df565b50610e10600155600a6002556021600355617080600455620d2f00600555670de0b6b3a76400006006556104b0600755600b80546001600160a01b03199081167398d23ada1da268bc10e2e0d1585c47971c4b89dd17909155600c8054821673845e76a8691423fbc4ecb8dd77556cb61c09ee25179055600d80548216730d500b1d8e8ef31e21c99d1db9a6444d3adf1270179055600e80548216735c6ec38fb0e2609672bdf628b1fd605a523e5923179055600f8054909116734e22399070ad5ad7f7beb7d3a7b543e8ecbf1d851790553480156200010c57600080fd5b50600b54601080546001600160a01b03199081166001600160a01b03938416908117909255600c546011805483169185169182179055600d546012805484169186169182179055600e54601380548516918716919091179055600f546014805490941695169490941790915560408051606081018252928352602083019390935291810191909152620001a49060159060036200026e565b5060408051808201909152600c546001600160a01b039081168252600d54166020820152620001d89060169060026200026e565b506200031a565b828054620001ed90620002dd565b90600052602060002090601f0160209004810192826200021157600085556200025c565b82601f106200022c57805160ff19168380011785556200025c565b828001600101855582156200025c579182015b828111156200025c5782518255916020019190600101906200023f565b506200026a929150620002c6565b5090565b8280548282559060005260206000209081019282156200025c579160200282015b828111156200025c57825182546001600160a01b0319166001600160a01b039091161782556020909201916001909101906200028f565b5b808211156200026a5760008155600101620002c7565b600281046001821680620002f257607f821691505b602082108114156200031457634e487b7160e01b600052602260045260246000fd5b50919050565b6113e8806200032a6000396000f3fe608060405234801561001057600080fd5b50600436106100ea5760003560e01c8063b6b55f251161008c578063c1f45a9911610066578063c1f45a991461016f578063d9a9cb6f14610177578063db2e21bc1461017f578063f9209fae14610187576100ea565b8063b6b55f251461014c578063b841ac331461015f578063c1b4305614610167576100ea565b806340737cdd116100c857806340737cdd1461012c5780634641257d146101345780634a033c641461013c5780634fbfd1b614610144576100ea565b80630de705b5146100ef57806317d7de7c1461010d5780633ccfd60b14610122575b600080fd5b6100f761018f565b6040516101049190611107565b60405180910390f35b610115610195565b6040516101049190611110565b61012a610227565b005b6100f761032d565b61012a6103b3565b6100f76104bd565b6100f76104f7565b61012a61015a366004611086565b6105f6565b6100f7610a28565b6100f7610a53565b6100f7610a84565b6100f7610a8a565b61012a610a90565b6100f7610b6e565b60025490565b6060600080546101a49061134b565b80601f01602080910402602001604051908101604052809291908181526020018280546101d09061134b565b801561021d5780601f106101f25761010080835404028352916020019161021d565b820191906000526020600020905b81548152906001019060200180831161020057829003601f168201915b5050505050905090565b336000908152600a60205260409020548061025d5760405162461bcd60e51b815260040161025490611227565b60405180910390fd5b60006102676104bd565b905060045481111561027b5761027b6103b3565b336000818152600a602052604080822091909155601054905163a9059cbb60e01b81526001600160a01b039091169163a9059cbb916102bf919086906004016110ee565b602060405180830381600087803b1580156102d957600080fd5b505af11580156102ed573d6000803e3d6000fd5b505050506040513d601f19601f82011682018060405250810190610311919061105f565b5081600960008282546103249190611334565b90915550505050565b6012546040516370a0823160e01b81526000916001600160a01b0316906370a082319061035e9030906004016110b6565b60206040518083038186803b15801561037657600080fd5b505afa15801561038a573d6000803e3d6000fd5b505050506040513d601f19601f820116820180604052508101906103ae919061109e565b905090565b336000908152600a60205260409020546103df5760405162461bcd60e51b8152600401610254906111a9565b60006103e96104bd565b9050600454811161040c5760405162461bcd60e51b8152600401610254906111e0565b610414610b74565b600061041e6104f7565b336000818152600a60205260409081902043600190910155601254905163a9059cbb60e01b81529293506001600160a01b03169163a9059cbb916104669185906004016110ee565b602060405180830381600087803b15801561048057600080fd5b505af1158015610494573d6000803e3d6000fd5b505050506040513d601f19601f820116820180604052508101906104b8919061105f565b505050565b336000908152600a60205260408120548190156103ae57336000908152600a60205260409020600101546104f19043611334565b92915050565b336000908152600a60205260408120546105235760405162461bcd60e51b8152600401610254906111a9565b600061052d61032d565b905060008061053a6104bd565b905080156105ef5760065460055482101561056c5760055460065461055f9084611315565b61056991906112f5565b90505b600654600954336000908152600a602052604090205410156105b557600954600654336000908152600a60205260409020546105a89190611315565b6105b291906112f5565b90505b6006546000906105c58385611315565b6105cf91906112f5565b6006549091506105df8783611315565b6105e991906112f5565b94505050505b5091505090565b60648110156106175760405162461bcd60e51b815260040161025490611163565b6010546040516323b872dd60e01b81526001600160a01b03909116906323b872dd9061064b903390309086906004016110ca565b602060405180830381600087803b15801561066557600080fd5b505af1158015610679573d6000803e3d6000fd5b505050506040513d601f19601f8201168201806040525081019061069d919061105f565b5060006064600254836106b09190611315565b6106ba91906112f5565b905060006106c88284611334565b336000908152600a60205260408120805492935083929091906106ec9084906112dd565b9091555050336000908152600a6020526040812043600190910155600980548392906107199084906112dd565b925050819055506000601580548060200260200160405190810160405280929190818152602001828054801561077857602002820191906000526020600020905b81546001600160a01b0316815260019091019060200180831161075a575b5050601054600e5460405163095ea7b360e01b81529596506001600160a01b039182169563095ea7b395506107b694509116915087906004016110ee565b602060405180830381600087803b1580156107d057600080fd5b505af11580156107e4573d6000803e3d6000fd5b505050506040513d601f19601f82011682018060405250810190610808919061105f565b506013546001546001600160a01b03909116906338ed17399085906000908590309061083490426112dd565b6040518663ffffffff1660e01b815260040161085495949392919061126d565b600060405180830381600087803b15801561086e57600080fd5b505af1158015610882573d6000803e3d6000fd5b505050506040513d6000823e601f3d908101601f191682016040526108aa9190810190610fa5565b506011546040516370a0823160e01b81526000916001600160a01b0316906370a08231906108dc9030906004016110b6565b60206040518083038186803b1580156108f457600080fd5b505afa158015610908573d6000803e3d6000fd5b505050506040513d601f19601f8201168201806040525081019061092c919061109e565b601154600f5460405163095ea7b360e01b81529293506001600160a01b039182169263095ea7b39261096492169085906004016110ee565b602060405180830381600087803b15801561097e57600080fd5b505af1158015610992573d6000803e3d6000fd5b505050506040513d601f19601f820116820180604052508101906109b6919061105f565b506014546040516341441d3b60e01b81526001600160a01b03909116906341441d3b906109e7908490600401611107565b600060405180830381600087803b158015610a0157600080fd5b505af1158015610a15573d6000803e3d6000fd5b50505050610a21610b74565b5050505050565b336000908152600a602090815260409182902082518084019093528054835260010154910181905290565b336000908152600a602090815260409182902082518084019093528054808452600190910154929091019190915290565b60045490565b60055490565b336000908152600a602052604090205480610abd5760405162461bcd60e51b815260040161025490611227565b336000818152600a602052604080822091909155601054905163a9059cbb60e01b81526001600160a01b039091169163a9059cbb91610b01919085906004016110ee565b602060405180830381600087803b158015610b1b57600080fd5b505af1158015610b2f573d6000803e3d6000fd5b505050506040513d601f19601f82011682018060405250810190610b53919061105f565b508060096000828254610b669190611334565b909155505050565b60095490565b600060085443610b849190611334565b9050600754811115610fa25760006016805480602002602001604051908101604052809291908181526020018280548015610be857602002820191906000526020600020905b81546001600160a01b03168152600190910190602001808311610bca575b5050601454604051631058d28160e01b81529495506001600160a01b031693631058d2819350610c1f925060009150600401611107565b600060405180830381600087803b158015610c3957600080fd5b505af1158015610c4d573d6000803e3d6000fd5b50506011546040516370a0823160e01b8152600093506001600160a01b0390911691506370a0823190610c849030906004016110b6565b60206040518083038186803b158015610c9c57600080fd5b505afa158015610cb0573d6000803e3d6000fd5b505050506040513d601f19601f82011682018060405250810190610cd4919061109e565b90506000606460035483610ce89190611315565b610cf291906112f5565b90508015610de657601154600f5460405163095ea7b360e01b81526001600160a01b039283169263095ea7b392610d309291169085906004016110ee565b602060405180830381600087803b158015610d4a57600080fd5b505af1158015610d5e573d6000803e3d6000fd5b505050506040513d601f19601f82011682018060405250810190610d82919061105f565b506014546040516341441d3b60e01b81526001600160a01b03909116906341441d3b90610db3908490600401611107565b600060405180830381600087803b158015610dcd57600080fd5b505af1158015610de1573d6000803e3d6000fd5b505050505b6011546040516370a0823160e01b81526001600160a01b03909116906370a0823190610e169030906004016110b6565b60206040518083038186803b158015610e2e57600080fd5b505afa158015610e42573d6000803e3d6000fd5b505050506040513d601f19601f82011682018060405250810190610e66919061109e565b91508115610f9a57601154600e5460405163095ea7b360e01b81526001600160a01b039283169263095ea7b392610ea49291169086906004016110ee565b602060405180830381600087803b158015610ebe57600080fd5b505af1158015610ed2573d6000803e3d6000fd5b505050506040513d601f19601f82011682018060405250810190610ef6919061105f565b506013546001546001600160a01b03909116906338ed173990849060009087903090610f2290426112dd565b6040518663ffffffff1660e01b8152600401610f4295949392919061126d565b600060405180830381600087803b158015610f5c57600080fd5b505af1158015610f70573d6000803e3d6000fd5b505050506040513d6000823e601f3d908101601f19168201604052610f989190810190610fa5565b505b505043600855505b50565b60006020808385031215610fb7578182fd5b825167ffffffffffffffff80821115610fce578384fd5b818501915085601f830112610fe1578384fd5b815181811115610ff357610ff361139c565b838102604051858282010181811085821117156110125761101261139c565b604052828152858101935084860182860187018a1015611030578788fd5b8795505b83861015611052578051855260019590950194938601938601611034565b5098975050505050505050565b600060208284031215611070578081fd5b8151801515811461107f578182fd5b9392505050565b600060208284031215611097578081fd5b5035919050565b6000602082840312156110af578081fd5b5051919050565b6001600160a01b0391909116815260200190565b6001600160a01b039384168152919092166020820152604081019190915260600190565b6001600160a01b03929092168252602082015260400190565b90815260200190565b6000602080835283518082850152825b8181101561113c57858101830151858201604001528201611120565b8181111561114d5783604083870101525b50601f01601f1916929092016040019392505050565b60208082526026908201527f4d61746963506f6f6c3a206d696e696d756d206465706f73697420616d6f756e6040820152650743a203130360d41b606082015260800190565b6020808252601f908201527f4d61746963506f6f6c3a207374616b696e67206465706f736974206973203000604082015260600190565b60208082526027908201527f4d61746963506f6f6c3a206861727665737420636f6f6c646f776e20696e2070604082015266726f677265737360c81b606082015260800190565b60208082526026908201527f4d61746963506f6f6c3a20776974686472617720616d6f756e742063616e6e6f60408201526507420626520360d41b606082015260800190565b600060a082018783526020878185015260a0604085015281875180845260c0860191508289019350845b818110156112bc5784516001600160a01b031683529383019391830191600101611297565b50506001600160a01b03969096166060850152505050608001529392505050565b600082198211156112f0576112f0611386565b500190565b60008261131057634e487b7160e01b81526012600452602481fd5b500490565b600081600019048311821515161561132f5761132f611386565b500290565b60008282101561134657611346611386565b500390565b60028104600182168061135f57607f821691505b6020821081141561138057634e487b7160e01b600052602260045260246000fd5b50919050565b634e487b7160e01b600052601160045260246000fd5b634e487b7160e01b600052604160045260246000fdfea2646970667358221220b63212cfc46036fb0600ff2075c1fa9f9feee7242437166866a3f69d8045b19264736f6c63430008000033",
  "immutableReferences": {},
  "source": "//SPDX-License-Identifier: GPL-3.0+\n\npragma solidity 0.8.0;\n\ncontract GoToken\n{\n    function approve(address, uint256) external returns (bool) {}\n    function balanceOf(address) external view returns (uint256) {}\n    function transfer(address, uint256) external returns (bool) {}\n    function transferFrom(address, address, uint256) external returns (bool) {}\n}\n\ncontract WingsToken\n{\n    function approve(address, uint256) external returns (bool) {}\n    function balanceOf(address) external view returns (uint256) {}\n}\n\ncontract MaticToken\n{\n    function balanceOf(address) external view returns (uint256) {}\n    function transfer(address, uint256) external returns (bool) {}\n}\n\ncontract JetSwapRouter\n{\n    function swapExactTokensForTokens(\n                 uint,\n                 uint,\n                 address[] calldata,\n                 address,\n                 uint\n             ) external virtual returns (uint[] memory) {}\n}\n\ncontract MasterChef\n{\n    function enterStaking(uint256) public {}\n    function leaveStaking(uint256) public {}\n}\n\ncontract MaticPool \n{\n    struct UserData \n    { \n        uint256 stakingDeposit;\n        uint256 stakingBlock;\n    }\n    \n    string  private _name = \"\\x4d\\x61\\x74\\x69\\x63\\x20\\x50\\x6f\\x6f\\x6c\";\n    uint256 private _swapWaitingBlocks = 3600;\n    uint256 private _depositFee = 10; //Deposit fee: 10%\n    uint256 private _autoCompoundFee = 33; //Auto-compound fee: 33%\n    uint256 private _harvestCooldownBlocks = 28800;\n    uint256 private _stakingBlockRange = 864000;\n    uint256 private _decimalFixMultiplier = 1000000000000000000;\n    uint256 private _updateCooldownBlocks = 1200;\n\n    uint256 private _lastUpdate;\n    uint256 private _totalStakingDeposits;\n    \n    mapping(address => UserData) private _userData;\n    \n    address private _goTokenAddress = 0x98D23ADA1Da268Bc10E2e0d1585C47971C4B89DD;\n    address private _wingsTokenAddress = 0x845E76A8691423fbc4ECb8Dd77556Cb61c09eE25;\n    address private _maticTokenAddress = 0x0d500B1d8E8eF31E21C99d1Db9A6444d3ADf1270;\n    address private _jetSwapRouterAddress = 0x5C6EC38fb0e2609672BDf628B1fD605A523E5923;\n    address private _masterChefAddress = 0x4e22399070aD5aD7f7BEb7d3A7b543e8EcBf1d85;\n    \n    GoToken       private _goToken;\n    WingsToken    private _wingsToken;\n    MaticToken    private _maticToken;\n    JetSwapRouter private _jetSwapRouter;\n    MasterChef    private _masterChef;\n    \n    address[] private _goWingsPair;\n    address[] private _wingsMaticPair;\n   \n    constructor()\n    {\n        //Initialize contracts\n        _goToken = GoToken(_goTokenAddress);\n        _wingsToken = WingsToken(_wingsTokenAddress);\n        _maticToken = MaticToken(_maticTokenAddress);\n        _jetSwapRouter = JetSwapRouter(_jetSwapRouterAddress);\n        _masterChef = MasterChef(_masterChefAddress);\n        \n        //Initialize trading pairs\n        _goWingsPair = [_goTokenAddress, _maticTokenAddress, _wingsTokenAddress];\n        _wingsMaticPair = [_wingsTokenAddress, _maticTokenAddress];\n    }\n    \n    function getName() external view returns (string memory)\n    {\n        return _name;\n    }\n    \n    function getRewardsFund() public view returns (uint256)\n    {\n        return _maticToken.balanceOf(address(this));\n    }\n    \n    function getTotalStakingDeposits() external view returns (uint256)\n    {\n        return _totalStakingDeposits;\n    }\n    \n    function getDepositFee() external view returns (uint256)\n    {\n        return _depositFee;\n    }\n    \n    function getHarvestCooldownBlocks() external view returns (uint256)\n    {\n        return _harvestCooldownBlocks;\n    }\n    \n    function getStakingBlockRange() external view returns (uint256)\n    {\n        return _stakingBlockRange;\n    } \n    \n    function updateRewardsFund() private\n    {\n        uint256 elapsedBlocks = block.number - _lastUpdate;\n    \n        if (elapsedBlocks > _updateCooldownBlocks)\n        {\n            address[] memory wingsMaticPairMemory = _wingsMaticPair;\n                \n            //Harvest pending Wings\n            _masterChef.leaveStaking(0);\n            \n            uint256 amount = _wingsToken.balanceOf(address(this));\n\n            uint256 fee = amount * _autoCompoundFee / 100;\n                        \n            //Auto-compound\n            if (fee > 0)\n            {\n                _wingsToken.approve(_masterChefAddress, fee);\n                _masterChef.enterStaking(fee);\n            }\n            \n            amount = _wingsToken.balanceOf(address(this));\n            \n            //Swap Wings for Matic\n            if (amount > 0)\n            {\n                _wingsToken.approve(_jetSwapRouterAddress, amount);\n                _jetSwapRouter.swapExactTokensForTokens(amount, 0, wingsMaticPairMemory, address(this), block.timestamp + _swapWaitingBlocks);\n            }\n            \n            _lastUpdate = block.number;\n        }\n    }\n    \n    function deposit(uint256 amount) external \n    {\n        require(amount >= 100, \"MaticPool: minimum deposit amount: 100\");\n        \n        _goToken.transferFrom(msg.sender, address(this), amount);\n        \n        uint256 fee = amount * _depositFee / 100;\n        uint256 netAmount = amount - fee;\n        \n        //Update Pool data\n        _userData[msg.sender].stakingDeposit += netAmount;\n        _userData[msg.sender].stakingBlock = block.number;\n        \n        _totalStakingDeposits += netAmount;\n        \n        //Swap fee for Wings\n        address[] memory goWingsPairMemory = _goWingsPair;\n                \n        _goToken.approve(_jetSwapRouterAddress, fee);\n        _jetSwapRouter.swapExactTokensForTokens(fee, 0, goWingsPairMemory, address(this), block.timestamp + _swapWaitingBlocks);\n        \n        //Deposit Wings on MasterChef\n        uint256 wingsAmount = _wingsToken.balanceOf(address(this));\n\n        _wingsToken.approve(_masterChefAddress, wingsAmount);\n        _masterChef.enterStaking(wingsAmount);\n        \n        //Update rewards fund\n        updateRewardsFund();\n    }\n\n    function withdraw() external\n    {\n        uint256 stakingDeposit = _userData[msg.sender].stakingDeposit;\n        \n        require(stakingDeposit > 0, \"MaticPool: withdraw amount cannot be 0\");\n        \n        uint256 blocksStaking = computeBlocksStaking();\n\n        if (blocksStaking > _harvestCooldownBlocks)\n            harvest();\n        \n        _userData[msg.sender].stakingDeposit = 0;\n \n        _goToken.transfer(msg.sender, stakingDeposit);\n        \n        _totalStakingDeposits -= stakingDeposit;\n    }\n    \n    function emergencyWithdraw() external\n    {\n        uint256 stakingDeposit = _userData[msg.sender].stakingDeposit;\n        \n        require(stakingDeposit > 0, \"MaticPool: withdraw amount cannot be 0\");\n        \n        _userData[msg.sender].stakingDeposit = 0;\n \n        _goToken.transfer(msg.sender, stakingDeposit);\n        \n        _totalStakingDeposits -= stakingDeposit;\n    }\n\n    function computeUserReward() public view returns (uint256)\n    {\n        require(_userData[msg.sender].stakingDeposit > 0, \"MaticPool: staking deposit is 0\");\n    \n        uint256 rewardsFund = getRewardsFund();\n        \n        uint256 userReward = 0;\n    \n        uint256 blocksStaking = computeBlocksStaking();\n        \n        if (blocksStaking > 0)\n\t    {\n\t        uint256 userBlockRatio = _decimalFixMultiplier;\n\t    \n\t        if (blocksStaking < _stakingBlockRange)\n\t            userBlockRatio = blocksStaking * _decimalFixMultiplier / _stakingBlockRange; \n\t\t    \n\t\t    uint256 userDepositRatio = _decimalFixMultiplier;\n\t\t    \n\t\t    if (_userData[msg.sender].stakingDeposit < _totalStakingDeposits)\n\t\t        userDepositRatio = _userData[msg.sender].stakingDeposit * _decimalFixMultiplier / _totalStakingDeposits;\n\t\t    \n\t\t    uint256 totalRatio = userBlockRatio * userDepositRatio / _decimalFixMultiplier;\n\t\t    \n\t\t    userReward = totalRatio * rewardsFund / _decimalFixMultiplier;\n\t\t}\n\t\t\n\t\treturn userReward;\n    }\n\n    function harvest() public \n    {\n        require(_userData[msg.sender].stakingDeposit > 0, \"MaticPool: staking deposit is 0\");\n\n        uint256 blocksStaking = computeBlocksStaking();\n\n        require(blocksStaking > _harvestCooldownBlocks, \"MaticPool: harvest cooldown in progress\");\n    \n        updateRewardsFund();\n        \n        uint256 userReward = computeUserReward();\n        \n        _userData[msg.sender].stakingBlock = block.number;\n\n        _maticToken.transfer(msg.sender, userReward);\n    }\n    \n    function getStakingDeposit() external view returns (uint256)\n    {\n        UserData memory userData = _userData[msg.sender];\n    \n        return (userData.stakingDeposit);\n    }\n    \n    function getStakingBlock() external view returns (uint256)\n    {\n        UserData memory userData = _userData[msg.sender];\n    \n        return (userData.stakingBlock);\n    }\n    \n    function computeBlocksStaking() public view returns (uint256)\n    {\n        uint256 blocksStaking = 0;\n        \n        if (_userData[msg.sender].stakingDeposit > 0)\n            blocksStaking = block.number - _userData[msg.sender].stakingBlock;\n        \n        return blocksStaking;\n    }\n}\n\n",
  "sourcePath": "/home/kenshiro/MaticPool/contracts/MaticPool.sol",
  "compiler": {
    "name": "solc",
    "version": "0.8.0+commit.c7dfd78e.Emscripten.clang"
  },
  "schemaVersion": "3.4.0",
  "updatedAt": "2021-09-22T16:47:54.764Z",
  "networkType": "ethereum",
  "devdoc": {
    "kind": "dev",
    "methods": {},
    "version": 1
  },
  "userdoc": {
    "kind": "user",
    "methods": {},
    "version": 1
  }
}